{
  "_format": "hh-sol-artifact-1",
  "contractName": "SushiMakerAuction",
  "sourceName": "contracts/SushiMakerAuction.sol",
  "abi": [
    {
      "inputs": [
        {
          "internalType": "address",
          "name": "_receiver",
          "type": "address"
        },
        {
          "internalType": "contract IERC20",
          "name": "_bidToken",
          "type": "address"
        },
        {
          "internalType": "address",
          "name": "_factory",
          "type": "address"
        },
        {
          "internalType": "bytes32",
          "name": "_pairCodeHash",
          "type": "bytes32"
        }
      ],
      "stateMutability": "nonpayable",
      "type": "constructor"
    },
    {
      "inputs": [],
      "name": "BidAlreadyStarted",
      "type": "error"
    },
    {
      "inputs": [],
      "name": "BidFinished",
      "type": "error"
    },
    {
      "inputs": [],
      "name": "BidNotFinished",
      "type": "error"
    },
    {
      "inputs": [],
      "name": "BidNotStarted",
      "type": "error"
    },
    {
      "inputs": [],
      "name": "BidTokenNotAllowed",
      "type": "error"
    },
    {
      "inputs": [],
      "name": "InsufficientBidAmount",
      "type": "error"
    },
    {
      "inputs": [],
      "name": "LPTokenNotAllowed",
      "type": "error"
    },
    {
      "anonymous": false,
      "inputs": [
        {
          "indexed": true,
          "internalType": "contract IERC20",
          "name": "token",
          "type": "address"
        },
        {
          "indexed": true,
          "internalType": "address",
          "name": "bidder",
          "type": "address"
        },
        {
          "indexed": true,
          "internalType": "uint128",
          "name": "bidAmount",
          "type": "uint128"
        }
      ],
      "name": "Ended",
      "type": "event"
    },
    {
      "anonymous": false,
      "inputs": [
        {
          "indexed": true,
          "internalType": "address",
          "name": "previousOwner",
          "type": "address"
        },
        {
          "indexed": true,
          "internalType": "address",
          "name": "newOwner",
          "type": "address"
        }
      ],
      "name": "OwnershipTransferred",
      "type": "event"
    },
    {
      "anonymous": false,
      "inputs": [
        {
          "indexed": true,
          "internalType": "contract IERC20",
          "name": "token",
          "type": "address"
        },
        {
          "indexed": true,
          "internalType": "address",
          "name": "bidder",
          "type": "address"
        },
        {
          "indexed": true,
          "internalType": "uint128",
          "name": "bidAmount",
          "type": "uint128"
        }
      ],
      "name": "PlacedBid",
      "type": "event"
    },
    {
      "anonymous": false,
      "inputs": [
        {
          "indexed": true,
          "internalType": "contract IERC20",
          "name": "token",
          "type": "address"
        },
        {
          "indexed": true,
          "internalType": "address",
          "name": "bidder",
          "type": "address"
        },
        {
          "indexed": true,
          "internalType": "uint128",
          "name": "bidAmount",
          "type": "uint128"
        },
        {
          "indexed": false,
          "internalType": "uint128",
          "name": "rewardAmount",
          "type": "uint128"
        }
      ],
      "name": "Started",
      "type": "event"
    },
    {
      "inputs": [
        {
          "internalType": "bytes[]",
          "name": "calls",
          "type": "bytes[]"
        },
        {
          "internalType": "bool",
          "name": "revertOnFail",
          "type": "bool"
        }
      ],
      "name": "batch",
      "outputs": [],
      "stateMutability": "payable",
      "type": "function"
    },
    {
      "inputs": [],
      "name": "bidToken",
      "outputs": [
        {
          "internalType": "contract IERC20",
          "name": "",
          "type": "address"
        }
      ],
      "stateMutability": "view",
      "type": "function"
    },
    {
      "inputs": [
        {
          "internalType": "contract IERC20",
          "name": "",
          "type": "address"
        }
      ],
      "name": "bids",
      "outputs": [
        {
          "internalType": "address",
          "name": "bidder",
          "type": "address"
        },
        {
          "internalType": "uint128",
          "name": "bidAmount",
          "type": "uint128"
        },
        {
          "internalType": "uint128",
          "name": "rewardAmount",
          "type": "uint128"
        },
        {
          "internalType": "uint64",
          "name": "minTTL",
          "type": "uint64"
        },
        {
          "internalType": "uint64",
          "name": "maxTTL",
          "type": "uint64"
        }
      ],
      "stateMutability": "view",
      "type": "function"
    },
    {
      "inputs": [],
      "name": "claimOwnership",
      "outputs": [],
      "stateMutability": "nonpayable",
      "type": "function"
    },
    {
      "inputs": [
        {
          "internalType": "contract IERC20",
          "name": "token",
          "type": "address"
        }
      ],
      "name": "end",
      "outputs": [],
      "stateMutability": "nonpayable",
      "type": "function"
    },
    {
      "inputs": [],
      "name": "factory",
      "outputs": [
        {
          "internalType": "address",
          "name": "",
          "type": "address"
        }
      ],
      "stateMutability": "view",
      "type": "function"
    },
    {
      "inputs": [],
      "name": "owner",
      "outputs": [
        {
          "internalType": "address",
          "name": "",
          "type": "address"
        }
      ],
      "stateMutability": "view",
      "type": "function"
    },
    {
      "inputs": [],
      "name": "pairCodeHash",
      "outputs": [
        {
          "internalType": "bytes32",
          "name": "",
          "type": "bytes32"
        }
      ],
      "stateMutability": "view",
      "type": "function"
    },
    {
      "inputs": [],
      "name": "pendingOwner",
      "outputs": [
        {
          "internalType": "address",
          "name": "",
          "type": "address"
        }
      ],
      "stateMutability": "view",
      "type": "function"
    },
    {
      "inputs": [
        {
          "internalType": "contract IERC20",
          "name": "token",
          "type": "address"
        },
        {
          "internalType": "address",
          "name": "from",
          "type": "address"
        },
        {
          "internalType": "address",
          "name": "to",
          "type": "address"
        },
        {
          "internalType": "uint256",
          "name": "amount",
          "type": "uint256"
        },
        {
          "internalType": "uint256",
          "name": "deadline",
          "type": "uint256"
        },
        {
          "internalType": "uint8",
          "name": "v",
          "type": "uint8"
        },
        {
          "internalType": "bytes32",
          "name": "r",
          "type": "bytes32"
        },
        {
          "internalType": "bytes32",
          "name": "s",
          "type": "bytes32"
        }
      ],
      "name": "permitToken",
      "outputs": [],
      "stateMutability": "nonpayable",
      "type": "function"
    },
    {
      "inputs": [
        {
          "internalType": "contract IERC20",
          "name": "token",
          "type": "address"
        },
        {
          "internalType": "uint128",
          "name": "bidAmount",
          "type": "uint128"
        },
        {
          "internalType": "address",
          "name": "to",
          "type": "address"
        }
      ],
      "name": "placeBid",
      "outputs": [],
      "stateMutability": "nonpayable",
      "type": "function"
    },
    {
      "inputs": [],
      "name": "receiver",
      "outputs": [
        {
          "internalType": "address",
          "name": "",
          "type": "address"
        }
      ],
      "stateMutability": "view",
      "type": "function"
    },
    {
      "inputs": [],
      "name": "skimBidToken",
      "outputs": [],
      "stateMutability": "nonpayable",
      "type": "function"
    },
    {
      "inputs": [],
      "name": "stakedBidToken",
      "outputs": [
        {
          "internalType": "uint128",
          "name": "",
          "type": "uint128"
        }
      ],
      "stateMutability": "view",
      "type": "function"
    },
    {
      "inputs": [
        {
          "internalType": "contract IERC20",
          "name": "token",
          "type": "address"
        },
        {
          "internalType": "uint128",
          "name": "bidAmount",
          "type": "uint128"
        },
        {
          "internalType": "address",
          "name": "to",
          "type": "address"
        }
      ],
      "name": "start",
      "outputs": [],
      "stateMutability": "nonpayable",
      "type": "function"
    },
    {
      "inputs": [
        {
          "internalType": "address",
          "name": "newOwner",
          "type": "address"
        },
        {
          "internalType": "bool",
          "name": "direct",
          "type": "bool"
        },
        {
          "internalType": "bool",
          "name": "renounce",
          "type": "bool"
        }
      ],
      "name": "transferOwnership",
      "outputs": [],
      "stateMutability": "nonpayable",
      "type": "function"
    },
    {
      "inputs": [
        {
          "internalType": "address",
          "name": "token0",
          "type": "address"
        },
        {
          "internalType": "address",
          "name": "token1",
          "type": "address"
        }
      ],
      "name": "unwindLP",
      "outputs": [],
      "stateMutability": "nonpayable",
      "type": "function"
    },
    {
      "inputs": [
        {
          "internalType": "address",
          "name": "newReceiver",
          "type": "address"
        }
      ],
      "name": "updateReceiver",
      "outputs": [],
      "stateMutability": "nonpayable",
      "type": "function"
    }
  ],
  "bytecode": "0x60e06040523480156200001157600080fd5b5060405162002895380380620028958339810160408190526200003491620000c2565b600080546001600160a01b0319163390811782556040519091907f8be0079c531659141344cd1fd0a4f28419497f9722a3daafe3b4186f6b6457e0908290a36001600255600580546001600160a01b0319166001600160a01b0395861617905591831660805290911660a05260c0526200011c565b6001600160a01b0381168114620000bf57600080fd5b50565b60008060008060808587031215620000d957600080fd5b8451620000e681620000a9565b6020860151909450620000f981620000a9565b60408601519093506200010c81620000a9565b6060959095015193969295505050565b60805160a05160c05161271162000184600039600081816103a6015261070601526000818161040801526106e301526000818161046f01528181610a4f01528181610fbe0152818161140a015281816114f3015281816117f9015261197901526127116000f3fe6080604052600436106101295760003560e01c80638da5cb5b116100a5578063c6c5519d11610074578063dfafd4fd11610059578063dfafd4fd1461045d578063e30c397814610491578063f7260d3e146104be57600080fd5b8063c6c5519d1461042a578063d2423b511461044a57600080fd5b80638da5cb5b146103425780639aab924814610394578063b5c7b552146103d6578063c45a0155146103f657600080fd5b8063765ea2fa116100fc5780637ba2196a116100e15780637ba2196a146102e25780637c516e94146103025780638c4dd39d1461032257600080fd5b8063765ea2fa1461028357806376610ee51461029857600080fd5b8063078dfbe71461012e5780633e8c3a39146101505780634e71e0c81461017057806362ea82db14610185575b600080fd5b34801561013a57600080fd5b5061014e6101493660046120b2565b6104eb565b005b34801561015c57600080fd5b5061014e61016b3660046120fd565b6106dc565b34801561017c57600080fd5b5061014e6108f0565b34801561019157600080fd5b5061021d6101a0366004612136565b60046020526000908152604090208054600182015460029092015473ffffffffffffffffffffffffffffffffffffffff909116916fffffffffffffffffffffffffffffffff80821692700100000000000000000000000000000000909204169067ffffffffffffffff808216916801000000000000000090041685565b6040805173ffffffffffffffffffffffffffffffffffffffff90961686526fffffffffffffffffffffffffffffffff9485166020870152939092169284019290925267ffffffffffffffff918216606084015216608082015260a0015b60405180910390f35b34801561028f57600080fd5b5061014e610a06565b3480156102a457600080fd5b506003546102c1906fffffffffffffffffffffffffffffffff1681565b6040516fffffffffffffffffffffffffffffffff909116815260200161027a565b3480156102ee57600080fd5b5061014e6102fd366004612136565b610b7c565b34801561030e57600080fd5b5061014e61031d36600461215a565b610c44565b34801561032e57600080fd5b5061014e61033d366004612136565b610cfc565b34801561034e57600080fd5b5060005461036f9073ffffffffffffffffffffffffffffffffffffffff1681565b60405173ffffffffffffffffffffffffffffffffffffffff909116815260200161027a565b3480156103a057600080fd5b506103c87f000000000000000000000000000000000000000000000000000000000000000081565b60405190815260200161027a565b3480156103e257600080fd5b5061014e6103f13660046121e3565b611184565b34801561040257600080fd5b5061036f7f000000000000000000000000000000000000000000000000000000000000000081565b34801561043657600080fd5b5061014e6104453660046121e3565b611688565b61014e610458366004612238565b611c91565b34801561046957600080fd5b5061036f7f000000000000000000000000000000000000000000000000000000000000000081565b34801561049d57600080fd5b5060015461036f9073ffffffffffffffffffffffffffffffffffffffff1681565b3480156104ca57600080fd5b5060055461036f9073ffffffffffffffffffffffffffffffffffffffff1681565b60005473ffffffffffffffffffffffffffffffffffffffff163314610571576040517f08c379a000000000000000000000000000000000000000000000000000000000815260206004820181905260248201527f4f776e61626c653a2063616c6c6572206973206e6f7420746865206f776e657260448201526064015b60405180910390fd5b81156106955773ffffffffffffffffffffffffffffffffffffffff83161515806105985750805b6105fe576040517f08c379a000000000000000000000000000000000000000000000000000000000815260206004820152601560248201527f4f776e61626c653a207a65726f206164647265737300000000000000000000006044820152606401610568565b6000805460405173ffffffffffffffffffffffffffffffffffffffff808716939216917f8be0079c531659141344cd1fd0a4f28419497f9722a3daafe3b4186f6b6457e091a36000805473ffffffffffffffffffffffffffffffffffffffff85167fffffffffffffffffffffffff000000000000000000000000000000000000000091821617909155600180549091169055505050565b6001805473ffffffffffffffffffffffffffffffffffffffff85167fffffffffffffffffffffffff0000000000000000000000000000000000000000909116179055505050565b600061072a7f000000000000000000000000000000000000000000000000000000000000000084847f0000000000000000000000000000000000000000000000000000000000000000611d7e565b6040517f70a0823100000000000000000000000000000000000000000000000000000000815230600482015290915073ffffffffffffffffffffffffffffffffffffffff82169063a9059cbb90839083906370a0823190602401602060405180830381865afa1580156107a1573d6000803e3d6000fd5b505050506040513d601f19601f820116820180604052508101906107c591906122b3565b6040517fffffffff0000000000000000000000000000000000000000000000000000000060e085901b16815273ffffffffffffffffffffffffffffffffffffffff909216600483015260248201526044016020604051808303816000875af1158015610835573d6000803e3d6000fd5b505050506040513d601f19601f8201168201806040525081019061085991906122cc565b506040517f89afcb4400000000000000000000000000000000000000000000000000000000815230600482015273ffffffffffffffffffffffffffffffffffffffff8216906389afcb449060240160408051808303816000875af11580156108c5573d6000803e3d6000fd5b505050506040513d601f19601f820116820180604052508101906108e991906122e9565b5050505050565b60015473ffffffffffffffffffffffffffffffffffffffff16338114610972576040517f08c379a000000000000000000000000000000000000000000000000000000000815260206004820181905260248201527f4f776e61626c653a2063616c6c657220213d2070656e64696e67206f776e65726044820152606401610568565b6000805460405173ffffffffffffffffffffffffffffffffffffffff808516939216917f8be0079c531659141344cd1fd0a4f28419497f9722a3daafe3b4186f6b6457e091a36000805473ffffffffffffffffffffffffffffffffffffffff9092167fffffffffffffffffffffffff0000000000000000000000000000000000000000928316179055600180549091169055565b6005546003546040517f70a0823100000000000000000000000000000000000000000000000000000000815230600482015273ffffffffffffffffffffffffffffffffffffffff7f000000000000000000000000000000000000000000000000000000000000000081169363a9059cbb939116916fffffffffffffffffffffffffffffffff9091169084906370a0823190602401602060405180830381865afa158015610ab7573d6000803e3d6000fd5b505050506040513d601f19601f82011682018060405250810190610adb91906122b3565b610ae5919061233c565b6040517fffffffff0000000000000000000000000000000000000000000000000000000060e085901b16815273ffffffffffffffffffffffffffffffffffffffff909216600483015260248201526044016020604051808303816000875af1158015610b55573d6000803e3d6000fd5b505050506040513d601f19601f82011682018060405250810190610b7991906122cc565b50565b60005473ffffffffffffffffffffffffffffffffffffffff163314610bfd576040517f08c379a000000000000000000000000000000000000000000000000000000000815260206004820181905260248201527f4f776e61626c653a2063616c6c6572206973206e6f7420746865206f776e65726044820152606401610568565b600580547fffffffffffffffffffffffff00000000000000000000000000000000000000001673ffffffffffffffffffffffffffffffffffffffff92909216919091179055565b6040517fd505accf00000000000000000000000000000000000000000000000000000000815273ffffffffffffffffffffffffffffffffffffffff88811660048301528781166024830152604482018790526064820186905260ff8516608483015260a4820184905260c4820183905289169063d505accf9060e401600060405180830381600087803b158015610cda57600080fd5b505af1158015610cee573d6000803e3d6000fd5b505050505050505050505050565b600280541415610d68576040517f08c379a000000000000000000000000000000000000000000000000000000000815260206004820152601f60248201527f5265656e7472616e637947756172643a207265656e7472616e742063616c6c006044820152606401610568565b600280805573ffffffffffffffffffffffffffffffffffffffff808316600090815260046020908152604091829020825160a081018452815490941680855260018201546fffffffffffffffffffffffffffffffff8082169487019490945270010000000000000000000000000000000090049092169284019290925292015467ffffffffffffffff80821660608401526801000000000000000090910416608082015290610e43576040517f14cfd27500000000000000000000000000000000000000000000000000000000815260040160405180910390fd5b42816060015167ffffffffffffffff16118015610e6d575042816080015167ffffffffffffffff16115b15610ea4576040517f117bf8a500000000000000000000000000000000000000000000000000000000815260040160405180910390fd5b805160408083015190517fa9059cbb00000000000000000000000000000000000000000000000000000000815273ffffffffffffffffffffffffffffffffffffffff92831660048201526fffffffffffffffffffffffffffffffff90911660248201529083169063a9059cbb906044016020604051808303816000875af1158015610f33573d6000803e3d6000fd5b505050506040513d601f19601f82011682018060405250810190610f5791906122cc565b5060055460208201516040517fa9059cbb00000000000000000000000000000000000000000000000000000000815273ffffffffffffffffffffffffffffffffffffffff92831660048201526fffffffffffffffffffffffffffffffff90911660248201527f00000000000000000000000000000000000000000000000000000000000000009091169063a9059cbb906044016020604051808303816000875af1158015611009573d6000803e3d6000fd5b505050506040513d601f19601f8201168201806040525081019061102d91906122cc565b506020810151600380546000906110579084906fffffffffffffffffffffffffffffffff16612353565b92506101000a8154816fffffffffffffffffffffffffffffffff02191690836fffffffffffffffffffffffffffffffff16021790555080602001516fffffffffffffffffffffffffffffffff16816000015173ffffffffffffffffffffffffffffffffffffffff168373ffffffffffffffffffffffffffffffffffffffff167f235076c43aff794fbe33ce58952e78fae9079ba92845e6ab8ab622ea5c026bbc60405160405180910390a45073ffffffffffffffffffffffffffffffffffffffff16600090815260046020526040812080547fffffffffffffffffffffffff0000000000000000000000000000000000000000168155600180820192909255600290810180547fffffffffffffffffffffffffffffffff0000000000000000000000000000000016905555565b6002805414156111f0576040517f08c379a000000000000000000000000000000000000000000000000000000000815260206004820152601f60248201527f5265656e7472616e637947756172643a207265656e7472616e742063616c6c006044820152606401610568565b6002805573ffffffffffffffffffffffffffffffffffffffff80841660009081526004602052604090208054909116611255576040517f14cfd27500000000000000000000000000000000000000000000000000000000815260040160405180910390fd5b60028101544267ffffffffffffffff90911611158061128f57506002810154426801000000000000000090910467ffffffffffffffff1611155b156112c6576040517f7be95b1400000000000000000000000000000000000000000000000000000000815260040160405180910390fd5b60018101546fffffffffffffffffffffffffffffffff80851691670de0b6b3a7640000916112fd9166038d7ea4c680009116612384565b61130791906123c1565b600183015461132891906fffffffffffffffffffffffffffffffff166123fc565b1115611360576040517fad25236500000000000000000000000000000000000000000000000000000000815260040160405180910390fd5b6001810154611381906fffffffffffffffffffffffffffffffff1684612353565b600380546000906113a59084906fffffffffffffffffffffffffffffffff16612414565b82546101009290920a6fffffffffffffffffffffffffffffffff8181021990931691831602179091556040517f23b872dd00000000000000000000000000000000000000000000000000000000815233600482015230602482015290851660448201527f000000000000000000000000000000000000000000000000000000000000000073ffffffffffffffffffffffffffffffffffffffff1691506323b872dd906064016020604051808303816000875af1158015611469573d6000803e3d6000fd5b505050506040513d601f19601f8201168201806040525081019061148d91906122cc565b50805460018201546040517fa9059cbb00000000000000000000000000000000000000000000000000000000815273ffffffffffffffffffffffffffffffffffffffff92831660048201526fffffffffffffffffffffffffffffffff90911660248201527f00000000000000000000000000000000000000000000000000000000000000009091169063a9059cbb906044016020604051808303816000875af115801561153e573d6000803e3d6000fd5b505050506040513d601f19601f8201168201806040525081019061156291906122cc565b5080547fffffffffffffffffffffffff00000000000000000000000000000000000000001673ffffffffffffffffffffffffffffffffffffffff83161781556001810180547fffffffffffffffffffffffffffffffff00000000000000000000000000000000166fffffffffffffffffffffffffffffffff85161790556115eb61a8c042612448565b6002820180547fffffffffffffffffffffffffffffffffffffffffffffffff00000000000000001667ffffffffffffffff929092169190911790556040516fffffffffffffffffffffffffffffffff841690339073ffffffffffffffffffffffffffffffffffffffff8716907fc105f7abc71fcaa791477fa2445a48c4b2f9e73fa4d556d3ba7f855691b9506a90600090a4505060016002555050565b60408051600481526024810182526020810180517bffffffffffffffffffffffffffffffffffffffffffffffffffffffff167f0dfe1681000000000000000000000000000000000000000000000000000000001790529051849160009173ffffffffffffffffffffffffffffffffffffffff84169161170691612497565b6000604051808303816000865af19150503d8060008114611743576040519150601f19603f3d011682016040523d82523d6000602084013e611748565b606091505b505090508015611784576040517ffc85da5c00000000000000000000000000000000000000000000000000000000815260040160405180910390fd5b6002805414156117f0576040517f08c379a000000000000000000000000000000000000000000000000000000000815260206004820152601f60248201527f5265656e7472616e637947756172643a207265656e7472616e742063616c6c006044820152606401610568565b600280819055507f000000000000000000000000000000000000000000000000000000000000000073ffffffffffffffffffffffffffffffffffffffff168573ffffffffffffffffffffffffffffffffffffffff16141561187d576040517f18023d9f00000000000000000000000000000000000000000000000000000000815260040160405180910390fd5b6103e8846fffffffffffffffffffffffffffffffff1610156118cb576040517fad25236500000000000000000000000000000000000000000000000000000000815260040160405180910390fd5b73ffffffffffffffffffffffffffffffffffffffff808616600090815260046020526040902080549091161561192d576040517f4c3ddfb500000000000000000000000000000000000000000000000000000000815260040160405180910390fd5b6040517f23b872dd0000000000000000000000000000000000000000000000000000000081523360048201523060248201526fffffffffffffffffffffffffffffffff861660448201527f000000000000000000000000000000000000000000000000000000000000000073ffffffffffffffffffffffffffffffffffffffff16906323b872dd906064016020604051808303816000875af11580156119d7573d6000803e3d6000fd5b505050506040513d601f19601f820116820180604052508101906119fb91906122cc565b5080547fffffffffffffffffffffffff00000000000000000000000000000000000000001673ffffffffffffffffffffffffffffffffffffffff8581169190911782556001820180547fffffffffffffffffffffffffffffffff00000000000000000000000000000000166fffffffffffffffffffffffffffffffff88161790556040517f70a08231000000000000000000000000000000000000000000000000000000008152306004820152908716906370a0823190602401602060405180830381865afa158015611ad2573d6000803e3d6000fd5b505050506040513d601f19601f82011682018060405250810190611af691906122b3565b6001820180546fffffffffffffffffffffffffffffffff928316700100000000000000000000000000000000029216919091179055611b3761a8c042612448565b6002820180547fffffffffffffffffffffffffffffffffffffffffffffffff00000000000000001667ffffffffffffffff92909216919091179055611b7f6203f48042612448565b60028201805467ffffffffffffffff9290921668010000000000000000027fffffffffffffffffffffffffffffffff0000000000000000ffffffffffffffff90921691909117905560038054869190600090611bee9084906fffffffffffffffffffffffffffffffff16612414565b82546101009290920a6fffffffffffffffffffffffffffffffff8181021990931691831602179091556001830154604051700100000000000000000000000000000000909104821681529087169150339073ffffffffffffffffffffffffffffffffffffffff8916907f47081336e222c377d840bc64c7c96f91a4d4242629a758a74105b95ce927a0429060200160405180910390a45050600160025550505050565b60005b82811015611d785760008030868685818110611cb257611cb26124b3565b9050602002810190611cc491906124e2565b604051611cd2929190612547565b600060405180830381855af49150503d8060008114611d0d576040519150601f19603f3d011682016040523d82523d6000602084013e611d12565b606091505b509150915081158015611d225750835b15611d6357611d3081611e98565b6040517f08c379a00000000000000000000000000000000000000000000000000000000081526004016105689190612557565b50508080611d70906125a8565b915050611c94565b50505050565b6000806000611d8d8686611efd565b6040517fffffffffffffffffffffffffffffffffffffffff000000000000000000000000606084811b8216602084015283901b166034820152919350915087906048016040516020818303038152906040528051906020012085604051602001611e57939291907fff00000000000000000000000000000000000000000000000000000000000000815260609390931b7fffffffffffffffffffffffffffffffffffffffff0000000000000000000000001660018401526015830191909152603582015260550190565b604080517fffffffffffffffffffffffffffffffffffffffffffffffffffffffffffffffe08184030181529190528051602090910120979650505050505050565b6060604482511015611edd57505060408051808201909152601d81527f5472616e73616374696f6e2072657665727465642073696c656e746c79000000602082015290565b60048201915081806020019051810190611ef79190612610565b92915050565b6000808273ffffffffffffffffffffffffffffffffffffffff168473ffffffffffffffffffffffffffffffffffffffff161415611fbc576040517f08c379a000000000000000000000000000000000000000000000000000000000815260206004820152602560248201527f556e697377617056324c6962726172793a204944454e544943414c5f4144445260448201527f45535345530000000000000000000000000000000000000000000000000000006064820152608401610568565b8273ffffffffffffffffffffffffffffffffffffffff168473ffffffffffffffffffffffffffffffffffffffff1610611ff6578284611ff9565b83835b909250905073ffffffffffffffffffffffffffffffffffffffff821661207b576040517f08c379a000000000000000000000000000000000000000000000000000000000815260206004820152601e60248201527f556e697377617056324c6962726172793a205a45524f5f4144445245535300006044820152606401610568565b9250929050565b73ffffffffffffffffffffffffffffffffffffffff81168114610b7957600080fd5b8015158114610b7957600080fd5b6000806000606084860312156120c757600080fd5b83356120d281612082565b925060208401356120e2816120a4565b915060408401356120f2816120a4565b809150509250925092565b6000806040838503121561211057600080fd5b823561211b81612082565b9150602083013561212b81612082565b809150509250929050565b60006020828403121561214857600080fd5b813561215381612082565b9392505050565b600080600080600080600080610100898b03121561217757600080fd5b883561218281612082565b9750602089013561219281612082565b965060408901356121a281612082565b9550606089013594506080890135935060a089013560ff811681146121c657600080fd5b979a969950949793969295929450505060c08201359160e0013590565b6000806000606084860312156121f857600080fd5b833561220381612082565b925060208401356fffffffffffffffffffffffffffffffff8116811461222857600080fd5b915060408401356120f281612082565b60008060006040848603121561224d57600080fd5b833567ffffffffffffffff8082111561226557600080fd5b818601915086601f83011261227957600080fd5b81358181111561228857600080fd5b8760208260051b850101111561229d57600080fd5b602092830195509350508401356120f2816120a4565b6000602082840312156122c557600080fd5b5051919050565b6000602082840312156122de57600080fd5b8151612153816120a4565b600080604083850312156122fc57600080fd5b505080516020909101519092909150565b7f4e487b7100000000000000000000000000000000000000000000000000000000600052601160045260246000fd5b60008282101561234e5761234e61230d565b500390565b60006fffffffffffffffffffffffffffffffff8381169083168181101561237c5761237c61230d565b039392505050565b6000817fffffffffffffffffffffffffffffffffffffffffffffffffffffffffffffffff04831182151516156123bc576123bc61230d565b500290565b6000826123f7577f4e487b7100000000000000000000000000000000000000000000000000000000600052601260045260246000fd5b500490565b6000821982111561240f5761240f61230d565b500190565b60006fffffffffffffffffffffffffffffffff80831681851680830382111561243f5761243f61230d565b01949350505050565b600067ffffffffffffffff80831681851680830382111561243f5761243f61230d565b60005b8381101561248657818101518382015260200161246e565b83811115611d785750506000910152565b600082516124a981846020870161246b565b9190910192915050565b7f4e487b7100000000000000000000000000000000000000000000000000000000600052603260045260246000fd5b60008083357fffffffffffffffffffffffffffffffffffffffffffffffffffffffffffffffe184360301811261251757600080fd5b83018035915067ffffffffffffffff82111561253257600080fd5b60200191503681900382131561207b57600080fd5b8183823760009101908152919050565b602081526000825180602084015261257681604085016020870161246b565b601f017fffffffffffffffffffffffffffffffffffffffffffffffffffffffffffffffe0169190910160400192915050565b60007fffffffffffffffffffffffffffffffffffffffffffffffffffffffffffffffff8214156125da576125da61230d565b5060010190565b7f4e487b7100000000000000000000000000000000000000000000000000000000600052604160045260246000fd5b60006020828403121561262257600080fd5b815167ffffffffffffffff8082111561263a57600080fd5b818401915084601f83011261264e57600080fd5b815181811115612660576126606125e1565b604051601f82017fffffffffffffffffffffffffffffffffffffffffffffffffffffffffffffffe0908116603f011681019083821181831017156126a6576126a66125e1565b816040528281528760208487010111156126bf57600080fd5b6126d083602083016020880161246b565b97965050505050505056fea26469706673582212209928be784fdc469007d9064c296d882d6aa7abc473af670e2fd7a90b0970726364736f6c634300080b0033",
  "linkReferences": {},
  "deployedLinkReferences": {}
}