{
  "_format": "hh-sol-artifact-1",
  "contractName": "FuroVesting",
  "sourceName": "contracts/base/FuroVesting.sol",
  "abi": [
    {
      "inputs": [
        {
          "internalType": "contract IBentoBoxMinimal",
          "name": "_bentoBox",
          "type": "address"
        },
        {
          "internalType": "address",
          "name": "_wETH",
          "type": "address"
        }
      ],
      "stateMutability": "nonpayable",
      "type": "constructor"
    },
    {
      "inputs": [],
      "name": "InvalidStart",
      "type": "error"
    },
    {
      "inputs": [],
      "name": "NotOwner",
      "type": "error"
    },
    {
      "anonymous": false,
      "inputs": [
        {
          "indexed": true,
          "internalType": "address",
          "name": "owner",
          "type": "address"
        },
        {
          "indexed": true,
          "internalType": "address",
          "name": "approved",
          "type": "address"
        },
        {
          "indexed": true,
          "internalType": "uint256",
          "name": "tokenId",
          "type": "uint256"
        }
      ],
      "name": "Approval",
      "type": "event"
    },
    {
      "anonymous": false,
      "inputs": [
        {
          "indexed": true,
          "internalType": "address",
          "name": "owner",
          "type": "address"
        },
        {
          "indexed": true,
          "internalType": "address",
          "name": "operator",
          "type": "address"
        },
        {
          "indexed": false,
          "internalType": "bool",
          "name": "approved",
          "type": "bool"
        }
      ],
      "name": "ApprovalForAll",
      "type": "event"
    },
    {
      "anonymous": false,
      "inputs": [
        {
          "indexed": true,
          "internalType": "contract IERC20",
          "name": "token",
          "type": "address"
        },
        {
          "indexed": true,
          "internalType": "address",
          "name": "owner",
          "type": "address"
        },
        {
          "indexed": true,
          "internalType": "address",
          "name": "recipient",
          "type": "address"
        },
        {
          "indexed": false,
          "internalType": "uint32",
          "name": "start",
          "type": "uint32"
        },
        {
          "indexed": false,
          "internalType": "uint32",
          "name": "cliffDuration",
          "type": "uint32"
        },
        {
          "indexed": false,
          "internalType": "uint32",
          "name": "stepDuration",
          "type": "uint32"
        },
        {
          "indexed": false,
          "internalType": "uint32",
          "name": "steps",
          "type": "uint32"
        },
        {
          "indexed": false,
          "internalType": "uint128",
          "name": "cliffAmount",
          "type": "uint128"
        },
        {
          "indexed": false,
          "internalType": "uint128",
          "name": "stepAmount",
          "type": "uint128"
        }
      ],
      "name": "LogCreateVesting",
      "type": "event"
    },
    {
      "anonymous": false,
      "inputs": [
        {
          "indexed": true,
          "internalType": "uint256",
          "name": "vestId",
          "type": "uint256"
        },
        {
          "indexed": true,
          "internalType": "uint256",
          "name": "ownerAmount",
          "type": "uint256"
        },
        {
          "indexed": true,
          "internalType": "uint256",
          "name": "recipientAmount",
          "type": "uint256"
        },
        {
          "indexed": false,
          "internalType": "contract IERC20",
          "name": "token",
          "type": "address"
        },
        {
          "indexed": false,
          "internalType": "bool",
          "name": "toBentoBox",
          "type": "bool"
        }
      ],
      "name": "LogStopVesting",
      "type": "event"
    },
    {
      "anonymous": false,
      "inputs": [
        {
          "indexed": true,
          "internalType": "uint256",
          "name": "vestId",
          "type": "uint256"
        },
        {
          "indexed": true,
          "internalType": "address",
          "name": "newOwner",
          "type": "address"
        }
      ],
      "name": "LogUpdateOwner",
      "type": "event"
    },
    {
      "anonymous": false,
      "inputs": [
        {
          "indexed": true,
          "internalType": "uint256",
          "name": "vestId",
          "type": "uint256"
        },
        {
          "indexed": true,
          "internalType": "contract IERC20",
          "name": "token",
          "type": "address"
        },
        {
          "indexed": true,
          "internalType": "bool",
          "name": "toBentoBox",
          "type": "bool"
        }
      ],
      "name": "LogWithdraw",
      "type": "event"
    },
    {
      "anonymous": false,
      "inputs": [
        {
          "indexed": true,
          "internalType": "address",
          "name": "previousOwner",
          "type": "address"
        },
        {
          "indexed": true,
          "internalType": "address",
          "name": "newOwner",
          "type": "address"
        }
      ],
      "name": "OwnershipTransferred",
      "type": "event"
    },
    {
      "anonymous": false,
      "inputs": [
        {
          "indexed": true,
          "internalType": "address",
          "name": "from",
          "type": "address"
        },
        {
          "indexed": true,
          "internalType": "address",
          "name": "to",
          "type": "address"
        },
        {
          "indexed": true,
          "internalType": "uint256",
          "name": "tokenId",
          "type": "uint256"
        }
      ],
      "name": "Transfer",
      "type": "event"
    },
    {
      "inputs": [
        {
          "internalType": "address",
          "name": "to",
          "type": "address"
        },
        {
          "internalType": "uint256",
          "name": "tokenId",
          "type": "uint256"
        }
      ],
      "name": "approve",
      "outputs": [],
      "stateMutability": "nonpayable",
      "type": "function"
    },
    {
      "inputs": [
        {
          "internalType": "address",
          "name": "owner",
          "type": "address"
        }
      ],
      "name": "balanceOf",
      "outputs": [
        {
          "internalType": "uint256",
          "name": "",
          "type": "uint256"
        }
      ],
      "stateMutability": "view",
      "type": "function"
    },
    {
      "inputs": [
        {
          "internalType": "bytes[]",
          "name": "calls",
          "type": "bytes[]"
        },
        {
          "internalType": "bool",
          "name": "revertOnFail",
          "type": "bool"
        }
      ],
      "name": "batch",
      "outputs": [],
      "stateMutability": "payable",
      "type": "function"
    },
    {
      "inputs": [],
      "name": "bentoBox",
      "outputs": [
        {
          "internalType": "contract IBentoBoxMinimal",
          "name": "",
          "type": "address"
        }
      ],
      "stateMutability": "view",
      "type": "function"
    },
    {
      "inputs": [],
      "name": "claimOwnership",
      "outputs": [],
      "stateMutability": "nonpayable",
      "type": "function"
    },
    {
      "inputs": [
        {
          "internalType": "contract IERC20",
          "name": "token",
          "type": "address"
        },
        {
          "internalType": "address",
          "name": "recipient",
          "type": "address"
        },
        {
          "internalType": "uint32",
          "name": "start",
          "type": "uint32"
        },
        {
          "internalType": "uint32",
          "name": "cliffDuration",
          "type": "uint32"
        },
        {
          "internalType": "uint32",
          "name": "stepDuration",
          "type": "uint32"
        },
        {
          "internalType": "uint32",
          "name": "steps",
          "type": "uint32"
        },
        {
          "internalType": "uint128",
          "name": "cliffAmount",
          "type": "uint128"
        },
        {
          "internalType": "uint128",
          "name": "stepAmount",
          "type": "uint128"
        },
        {
          "internalType": "bool",
          "name": "fromBentoBox",
          "type": "bool"
        }
      ],
      "name": "createVesting",
      "outputs": [
        {
          "internalType": "uint256",
          "name": "depositedShares",
          "type": "uint256"
        },
        {
          "internalType": "uint256",
          "name": "vestId",
          "type": "uint256"
        }
      ],
      "stateMutability": "payable",
      "type": "function"
    },
    {
      "inputs": [
        {
          "internalType": "uint256",
          "name": "tokenId",
          "type": "uint256"
        }
      ],
      "name": "getApproved",
      "outputs": [
        {
          "internalType": "address",
          "name": "",
          "type": "address"
        }
      ],
      "stateMutability": "view",
      "type": "function"
    },
    {
      "inputs": [
        {
          "internalType": "address",
          "name": "owner",
          "type": "address"
        },
        {
          "internalType": "address",
          "name": "operator",
          "type": "address"
        }
      ],
      "name": "isApprovedForAll",
      "outputs": [
        {
          "internalType": "bool",
          "name": "",
          "type": "bool"
        }
      ],
      "stateMutability": "view",
      "type": "function"
    },
    {
      "inputs": [],
      "name": "name",
      "outputs": [
        {
          "internalType": "string",
          "name": "",
          "type": "string"
        }
      ],
      "stateMutability": "view",
      "type": "function"
    },
    {
      "inputs": [],
      "name": "owner",
      "outputs": [
        {
          "internalType": "address",
          "name": "",
          "type": "address"
        }
      ],
      "stateMutability": "view",
      "type": "function"
    },
    {
      "inputs": [
        {
          "internalType": "uint256",
          "name": "tokenId",
          "type": "uint256"
        }
      ],
      "name": "ownerOf",
      "outputs": [
        {
          "internalType": "address",
          "name": "",
          "type": "address"
        }
      ],
      "stateMutability": "view",
      "type": "function"
    },
    {
      "inputs": [],
      "name": "pendingOwner",
      "outputs": [
        {
          "internalType": "address",
          "name": "",
          "type": "address"
        }
      ],
      "stateMutability": "view",
      "type": "function"
    },
    {
      "inputs": [
        {
          "internalType": "contract IERC20",
          "name": "token",
          "type": "address"
        },
        {
          "internalType": "address",
          "name": "from",
          "type": "address"
        },
        {
          "internalType": "address",
          "name": "to",
          "type": "address"
        },
        {
          "internalType": "uint256",
          "name": "amount",
          "type": "uint256"
        },
        {
          "internalType": "uint256",
          "name": "deadline",
          "type": "uint256"
        },
        {
          "internalType": "uint8",
          "name": "v",
          "type": "uint8"
        },
        {
          "internalType": "bytes32",
          "name": "r",
          "type": "bytes32"
        },
        {
          "internalType": "bytes32",
          "name": "s",
          "type": "bytes32"
        }
      ],
      "name": "permitToken",
      "outputs": [],
      "stateMutability": "nonpayable",
      "type": "function"
    },
    {
      "inputs": [
        {
          "internalType": "address",
          "name": "from",
          "type": "address"
        },
        {
          "internalType": "address",
          "name": "to",
          "type": "address"
        },
        {
          "internalType": "uint256",
          "name": "tokenId",
          "type": "uint256"
        }
      ],
      "name": "safeTransferFrom",
      "outputs": [],
      "stateMutability": "nonpayable",
      "type": "function"
    },
    {
      "inputs": [
        {
          "internalType": "address",
          "name": "from",
          "type": "address"
        },
        {
          "internalType": "address",
          "name": "to",
          "type": "address"
        },
        {
          "internalType": "uint256",
          "name": "tokenId",
          "type": "uint256"
        },
        {
          "internalType": "bytes",
          "name": "_data",
          "type": "bytes"
        }
      ],
      "name": "safeTransferFrom",
      "outputs": [],
      "stateMutability": "nonpayable",
      "type": "function"
    },
    {
      "inputs": [
        {
          "internalType": "address",
          "name": "operator",
          "type": "address"
        },
        {
          "internalType": "bool",
          "name": "approved",
          "type": "bool"
        }
      ],
      "name": "setApprovalForAll",
      "outputs": [],
      "stateMutability": "nonpayable",
      "type": "function"
    },
    {
      "inputs": [
        {
          "internalType": "address",
          "name": "user",
          "type": "address"
        },
        {
          "internalType": "bool",
          "name": "approved",
          "type": "bool"
        },
        {
          "internalType": "uint8",
          "name": "v",
          "type": "uint8"
        },
        {
          "internalType": "bytes32",
          "name": "r",
          "type": "bytes32"
        },
        {
          "internalType": "bytes32",
          "name": "s",
          "type": "bytes32"
        }
      ],
      "name": "setBentoBoxApproval",
      "outputs": [],
      "stateMutability": "nonpayable",
      "type": "function"
    },
    {
      "inputs": [
        {
          "internalType": "uint256",
          "name": "vestId",
          "type": "uint256"
        },
        {
          "internalType": "bool",
          "name": "toBentoBox",
          "type": "bool"
        }
      ],
      "name": "stopVesting",
      "outputs": [],
      "stateMutability": "nonpayable",
      "type": "function"
    },
    {
      "inputs": [
        {
          "internalType": "bytes4",
          "name": "interfaceId",
          "type": "bytes4"
        }
      ],
      "name": "supportsInterface",
      "outputs": [
        {
          "internalType": "bool",
          "name": "",
          "type": "bool"
        }
      ],
      "stateMutability": "view",
      "type": "function"
    },
    {
      "inputs": [],
      "name": "symbol",
      "outputs": [
        {
          "internalType": "string",
          "name": "",
          "type": "string"
        }
      ],
      "stateMutability": "view",
      "type": "function"
    },
    {
      "inputs": [
        {
          "internalType": "uint256",
          "name": "tokenId",
          "type": "uint256"
        }
      ],
      "name": "tokenURI",
      "outputs": [
        {
          "internalType": "string",
          "name": "",
          "type": "string"
        }
      ],
      "stateMutability": "view",
      "type": "function"
    },
    {
      "inputs": [
        {
          "internalType": "address",
          "name": "from",
          "type": "address"
        },
        {
          "internalType": "address",
          "name": "to",
          "type": "address"
        },
        {
          "internalType": "uint256",
          "name": "tokenId",
          "type": "uint256"
        }
      ],
      "name": "transferFrom",
      "outputs": [],
      "stateMutability": "nonpayable",
      "type": "function"
    },
    {
      "inputs": [
        {
          "internalType": "address",
          "name": "newOwner",
          "type": "address"
        },
        {
          "internalType": "bool",
          "name": "direct",
          "type": "bool"
        },
        {
          "internalType": "bool",
          "name": "renounce",
          "type": "bool"
        }
      ],
      "name": "transferOwnership",
      "outputs": [],
      "stateMutability": "nonpayable",
      "type": "function"
    },
    {
      "inputs": [
        {
          "internalType": "uint256",
          "name": "vestId",
          "type": "uint256"
        },
        {
          "internalType": "address",
          "name": "newOwner",
          "type": "address"
        }
      ],
      "name": "updateOwner",
      "outputs": [],
      "stateMutability": "nonpayable",
      "type": "function"
    },
    {
      "inputs": [
        {
          "internalType": "uint256",
          "name": "vestId",
          "type": "uint256"
        }
      ],
      "name": "vestBalance",
      "outputs": [
        {
          "internalType": "uint256",
          "name": "",
          "type": "uint256"
        }
      ],
      "stateMutability": "view",
      "type": "function"
    },
    {
      "inputs": [],
      "name": "vestIds",
      "outputs": [
        {
          "internalType": "uint256",
          "name": "",
          "type": "uint256"
        }
      ],
      "stateMutability": "view",
      "type": "function"
    },
    {
      "inputs": [
        {
          "internalType": "uint256",
          "name": "",
          "type": "uint256"
        }
      ],
      "name": "vests",
      "outputs": [
        {
          "internalType": "address",
          "name": "owner",
          "type": "address"
        },
        {
          "internalType": "contract IERC20",
          "name": "token",
          "type": "address"
        },
        {
          "internalType": "uint32",
          "name": "start",
          "type": "uint32"
        },
        {
          "internalType": "uint32",
          "name": "cliffDuration",
          "type": "uint32"
        },
        {
          "internalType": "uint32",
          "name": "stepDuration",
          "type": "uint32"
        },
        {
          "internalType": "uint32",
          "name": "steps",
          "type": "uint32"
        },
        {
          "internalType": "uint128",
          "name": "cliffAmount",
          "type": "uint128"
        },
        {
          "internalType": "uint128",
          "name": "stepAmount",
          "type": "uint128"
        },
        {
          "internalType": "uint128",
          "name": "claimed",
          "type": "uint128"
        }
      ],
      "stateMutability": "view",
      "type": "function"
    },
    {
      "inputs": [],
      "name": "wETH",
      "outputs": [
        {
          "internalType": "address",
          "name": "",
          "type": "address"
        }
      ],
      "stateMutability": "view",
      "type": "function"
    },
    {
      "inputs": [
        {
          "internalType": "uint256",
          "name": "vestId",
          "type": "uint256"
        },
        {
          "internalType": "bytes",
          "name": "taskData",
          "type": "bytes"
        },
        {
          "internalType": "bool",
          "name": "toBentoBox",
          "type": "bool"
        }
      ],
      "name": "withdraw",
      "outputs": [],
      "stateMutability": "nonpayable",
      "type": "function"
    }
  ],
  "bytecode": "0x60c06040523480156200001157600080fd5b506040516200403938038062004039833981016040819052620000349162000216565b604080518082018252600c81526b4675726f2056657374696e6760a01b60208083019182528351808501909452600884526711955493d59154d560c21b908401528151919291620000889160009162000157565b5080516200009e90600190602084019062000157565b5050600680546001600160a01b031916339081179091556040519091506000907f8be0079c531659141344cd1fd0a4f28419497f9722a3daafe3b4186f6b6457e0908290a36001600160a01b03808316608081905290821660a05260016009556040805163577268d960e11b8152905163aee4d1b29160048082019260009290919082900301818387803b1580156200013657600080fd5b505af11580156200014b573d6000803e3d6000fd5b50505050505062000292565b828054620001659062000255565b90600052602060002090601f016020900481019282620001895760008555620001d4565b82601f10620001a457805160ff1916838001178555620001d4565b82800160010185558215620001d4579182015b82811115620001d4578251825591602001919060010190620001b7565b50620001e2929150620001e6565b5090565b5b80821115620001e25760008155600101620001e7565b6001600160a01b03811681146200021357600080fd5b50565b600080604083850312156200022a57600080fd5b82516200023781620001fd565b60208401519092506200024a81620001fd565b809150509250929050565b600181811c908216806200026a57607f821691505b602082108114156200028c57634e487b7160e01b600052602260045260246000fd5b50919050565b60805160a051613d49620002f06000396000818161073c01526126b8015260008181610550015281816116980152818161277b0152818161284b01528181612915015281816129db01528181612c760152612d3a0152613d496000f3fe6080604052600436106101c25760003560e01c80636352211e116100f7578063a203db8e11610095578063d2423b5111610064578063d2423b5114610694578063e30c3978146106a7578063e985e9c5146106d4578063f24286211461072a57600080fd5b8063a203db8e14610614578063a22cb46514610634578063b88d4fde14610654578063c87b56dd1461067457600080fd5b80637192711f116100d15780637192711f146105925780637c516e94146105b25780638da5cb5b146105d257806395d89b41146105ff57600080fd5b80636352211e1461051e5780636b2ace871461053e57806370a082311461057257600080fd5b80632bcea7361161016457806342842e0e1161013e57806342842e0e14610351578063489bb0b2146103715780634e71e0c81461039157806351def556146103a657600080fd5b80632bcea736146102f3578063325b5c8e1461030957806340e76eff1461033157600080fd5b8063081812fc116101a0578063081812fc14610240578063095ea7b31461028557806319f77171146102a557806323b872dd146102d357600080fd5b806301ffc9a7146101c757806306fdde03146101fc578063078dfbe71461021e575b600080fd5b3480156101d357600080fd5b506101e76101e236600461321b565b61075e565b60405190151581526020015b60405180910390f35b34801561020857600080fd5b50610211610843565b6040516101f391906132ae565b34801561022a57600080fd5b5061023e6102393660046132f8565b6108d5565b005b34801561024c57600080fd5b5061026061025b36600461333d565b610ac6565b60405173ffffffffffffffffffffffffffffffffffffffff90911681526020016101f3565b34801561029157600080fd5b5061023e6102a0366004613356565b610ba0565b3480156102b157600080fd5b506102c56102c036600461333d565b610d28565b6040519081526020016101f3565b3480156102df57600080fd5b5061023e6102ee366004613382565b610e4f565b3480156102ff57600080fd5b506102c560095481565b61031c6103173660046133f7565b610ef0565b604080519283526020830191909152016101f3565b34801561033d57600080fd5b5061023e61034c3660046134a3565b61131d565b34801561035d57600080fd5b5061023e61036c366004613382565b611613565b34801561037d57600080fd5b5061023e61038c366004613541565b61162e565b34801561039d57600080fd5b5061023e6116fb565b3480156103b257600080fd5b5061049f6103c136600461333d565b600860205260009081526040902080546001820154600283015460039093015473ffffffffffffffffffffffffffffffffffffffff928316939282169263ffffffff740100000000000000000000000000000000000000008404811693780100000000000000000000000000000000000000000000000081048216937c0100000000000000000000000000000000000000000000000000000000909104821692918216916fffffffffffffffffffffffffffffffff640100000000909104811691808216917001000000000000000000000000000000009091041689565b6040805173ffffffffffffffffffffffffffffffffffffffff9a8b1681529990981660208a015263ffffffff96871697890197909752938516606088015291841660808701529290921660a08501526fffffffffffffffffffffffffffffffff91821660c0850152811660e084015216610100820152610120016101f3565b34801561052a57600080fd5b5061026061053936600461333d565b611812565b34801561054a57600080fd5b506102607f000000000000000000000000000000000000000000000000000000000000000081565b34801561057e57600080fd5b506102c561058d366004613598565b6118c4565b34801561059e57600080fd5b5061023e6105ad3660046135b5565b611992565b3480156105be57600080fd5b5061023e6105cd3660046135e5565b611a60565b3480156105de57600080fd5b506006546102609073ffffffffffffffffffffffffffffffffffffffff1681565b34801561060b57600080fd5b50610211611b18565b34801561062057600080fd5b5061023e61062f366004613666565b611b27565b34801561064057600080fd5b5061023e61064f366004613692565b611dc7565b34801561066057600080fd5b5061023e61066f366004613782565b611ede565b34801561068057600080fd5b5061021161068f36600461333d565b611f86565b61023e6106a2366004613831565b6120a2565b3480156106b357600080fd5b506007546102609073ffffffffffffffffffffffffffffffffffffffff1681565b3480156106e057600080fd5b506101e76106ef3660046138ac565b73ffffffffffffffffffffffffffffffffffffffff918216600090815260056020908152604080832093909416825291909152205460ff1690565b34801561073657600080fd5b506102607f000000000000000000000000000000000000000000000000000000000000000081565b60007fffffffff0000000000000000000000000000000000000000000000000000000082167f80ac58cd0000000000000000000000000000000000000000000000000000000014806107f157507fffffffff0000000000000000000000000000000000000000000000000000000082167f5b5e139f00000000000000000000000000000000000000000000000000000000145b8061083d57507f01ffc9a7000000000000000000000000000000000000000000000000000000007fffffffff000000000000000000000000000000000000000000000000000000008316145b92915050565b606060008054610852906138da565b80601f016020809104026020016040519081016040528092919081815260200182805461087e906138da565b80156108cb5780601f106108a0576101008083540402835291602001916108cb565b820191906000526020600020905b8154815290600101906020018083116108ae57829003601f168201915b5050505050905090565b60065473ffffffffffffffffffffffffffffffffffffffff16331461095b576040517f08c379a000000000000000000000000000000000000000000000000000000000815260206004820181905260248201527f4f776e61626c653a2063616c6c6572206973206e6f7420746865206f776e657260448201526064015b60405180910390fd5b8115610a805773ffffffffffffffffffffffffffffffffffffffff83161515806109825750805b6109e8576040517f08c379a000000000000000000000000000000000000000000000000000000000815260206004820152601560248201527f4f776e61626c653a207a65726f206164647265737300000000000000000000006044820152606401610952565b60065460405173ffffffffffffffffffffffffffffffffffffffff8086169216907f8be0079c531659141344cd1fd0a4f28419497f9722a3daafe3b4186f6b6457e090600090a36006805473ffffffffffffffffffffffffffffffffffffffff85167fffffffffffffffffffffffff000000000000000000000000000000000000000091821617909155600780549091169055505050565b600780547fffffffffffffffffffffffff00000000000000000000000000000000000000001673ffffffffffffffffffffffffffffffffffffffff85161790555b505050565b60008181526002602052604081205473ffffffffffffffffffffffffffffffffffffffff16610b77576040517f08c379a000000000000000000000000000000000000000000000000000000000815260206004820152602c60248201527f4552433732313a20617070726f76656420717565727920666f72206e6f6e657860448201527f697374656e7420746f6b656e00000000000000000000000000000000000000006064820152608401610952565b5060009081526004602052604090205473ffffffffffffffffffffffffffffffffffffffff1690565b6000610bab82611812565b90508073ffffffffffffffffffffffffffffffffffffffff168373ffffffffffffffffffffffffffffffffffffffff161415610c69576040517f08c379a000000000000000000000000000000000000000000000000000000000815260206004820152602160248201527f4552433732313a20617070726f76616c20746f2063757272656e74206f776e6560448201527f72000000000000000000000000000000000000000000000000000000000000006064820152608401610952565b3373ffffffffffffffffffffffffffffffffffffffff82161480610c925750610c9281336106ef565b610d1e576040517f08c379a000000000000000000000000000000000000000000000000000000000815260206004820152603860248201527f4552433732313a20617070726f76652063616c6c6572206973206e6f74206f7760448201527f6e6572206e6f7220617070726f76656420666f7220616c6c00000000000000006064820152608401610952565b610ac18383612189565b6000818152600860209081526040808320815161012081018352815473ffffffffffffffffffffffffffffffffffffffff908116825260018301549081169482019490945263ffffffff74010000000000000000000000000000000000000000850481169382019390935278010000000000000000000000000000000000000000000000008404831660608201527c010000000000000000000000000000000000000000000000000000000090930482166080840152600281015491821660a08401526fffffffffffffffffffffffffffffffff640100000000909204821660c08401526003015480821660e08401527001000000000000000000000000000000009004166101008201819052610e3e82612229565b610e48919061395d565b9392505050565b610e5933826122dd565b610ee5576040517f08c379a000000000000000000000000000000000000000000000000000000000815260206004820152603160248201527f4552433732313a207472616e736665722063616c6c6572206973206e6f74206f60448201527f776e6572206e6f7220617070726f7665640000000000000000000000000000006064820152608401610952565b610ac183838361244d565b600080428963ffffffff161015610f33576040517f38356e4c00000000000000000000000000000000000000000000000000000000815260040160405180910390fd5b610f6b8b3330610f4963ffffffff8b1689613974565b610f53908a6139ac565b6fffffffffffffffffffffffffffffffff16876126b4565b600980549193506000610f7d836139e0565b919050559050610f8d8a82612a52565b6040518061012001604052803373ffffffffffffffffffffffffffffffffffffffff1681526020018c73ffffffffffffffffffffffffffffffffffffffff1681526020018a63ffffffff1681526020018963ffffffff1681526020018863ffffffff1681526020018763ffffffff168152602001866fffffffffffffffffffffffffffffffff168152602001856fffffffffffffffffffffffffffffffff16815260200160006fffffffffffffffffffffffffffffffff168152506008600083815260200190815260200160002060008201518160000160006101000a81548173ffffffffffffffffffffffffffffffffffffffff021916908373ffffffffffffffffffffffffffffffffffffffff16021790555060208201518160010160006101000a81548173ffffffffffffffffffffffffffffffffffffffff021916908373ffffffffffffffffffffffffffffffffffffffff16021790555060408201518160010160146101000a81548163ffffffff021916908363ffffffff16021790555060608201518160010160186101000a81548163ffffffff021916908363ffffffff160217905550608082015181600101601c6101000a81548163ffffffff021916908363ffffffff16021790555060a08201518160020160006101000a81548163ffffffff021916908363ffffffff16021790555060c08201518160020160046101000a8154816fffffffffffffffffffffffffffffffff02191690836fffffffffffffffffffffffffffffffff16021790555060e08201518160030160006101000a8154816fffffffffffffffffffffffffffffffff02191690836fffffffffffffffffffffffffffffffff1602179055506101008201518160030160106101000a8154816fffffffffffffffffffffffffffffffff02191690836fffffffffffffffffffffffffffffffff1602179055509050508973ffffffffffffffffffffffffffffffffffffffff163373ffffffffffffffffffffffffffffffffffffffff168c73ffffffffffffffffffffffffffffffffffffffff167fdaab22ff526aa3ed97f7da7005e2321ed35878bfb1d68cb1bbff31c9a34e72428c8c8c8c8c8c6040516113079695949392919063ffffffff968716815294861660208601529285166040850152931660608301526fffffffffffffffffffffffffffffffff928316608083015290911660a082015260c00190565b60405180910390a4995099975050505050505050565b60008481526008602052604081209061133586611812565b905073ffffffffffffffffffffffffffffffffffffffff81163314611386576040517f30cd747100000000000000000000000000000000000000000000000000000000815260040160405180910390fd5b60038201546040805161012081018252845473ffffffffffffffffffffffffffffffffffffffff90811682526001860154908116602083015274010000000000000000000000000000000000000000810463ffffffff9081169383019390935278010000000000000000000000000000000000000000000000008104831660608301527c0100000000000000000000000000000000000000000000000000000000900482166080820152600285015491821660a08201526fffffffffffffffffffffffffffffffff640100000000909204821660c082015281831660e082015270010000000000000000000000000000000090920416610100820181905260009161149090612229565b61149a919061395d565b9050808360030160108282829054906101000a90046fffffffffffffffffffffffffffffffff166114cb91906139ac565b92506101000a8154816fffffffffffffffffffffffffffffffff02191690836fffffffffffffffffffffffffffffffff1602179055506115328360010160009054906101000a900473ffffffffffffffffffffffffffffffffffffffff1630848488612c14565b84156115bf576040517f330df28200000000000000000000000000000000000000000000000000000000815273ffffffffffffffffffffffffffffffffffffffff83169063330df2829061158c9089908990600401613a19565b600060405180830381600087803b1580156115a657600080fd5b505af11580156115ba573d6000803e3d6000fd5b505050505b60018301546040518515159173ffffffffffffffffffffffffffffffffffffffff169089907ffbec4a07b3fdc0b6b4032422393fdfe8d575ba50f6cf0784433238bcd44b730c90600090a450505050505050565b610ac183838360405180602001604052806000815250611ede565b6040517fc0a47c9300000000000000000000000000000000000000000000000000000000815273ffffffffffffffffffffffffffffffffffffffff8681166004830152306024830152851515604483015260ff851660648301526084820184905260a482018390527f0000000000000000000000000000000000000000000000000000000000000000169063c0a47c939060c401600060405180830381600087803b1580156116dc57600080fd5b505af11580156116f0573d6000803e3d6000fd5b505050505050505050565b60075473ffffffffffffffffffffffffffffffffffffffff1633811461177d576040517f08c379a000000000000000000000000000000000000000000000000000000000815260206004820181905260248201527f4f776e61626c653a2063616c6c657220213d2070656e64696e67206f776e65726044820152606401610952565b60065460405173ffffffffffffffffffffffffffffffffffffffff8084169216907f8be0079c531659141344cd1fd0a4f28419497f9722a3daafe3b4186f6b6457e090600090a36006805473ffffffffffffffffffffffffffffffffffffffff9092167fffffffffffffffffffffffff0000000000000000000000000000000000000000928316179055600780549091169055565b60008181526002602052604081205473ffffffffffffffffffffffffffffffffffffffff168061083d576040517f08c379a000000000000000000000000000000000000000000000000000000000815260206004820152602960248201527f4552433732313a206f776e657220717565727920666f72206e6f6e657869737460448201527f656e7420746f6b656e00000000000000000000000000000000000000000000006064820152608401610952565b600073ffffffffffffffffffffffffffffffffffffffff8216611969576040517f08c379a000000000000000000000000000000000000000000000000000000000815260206004820152602a60248201527f4552433732313a2062616c616e636520717565727920666f7220746865207a6560448201527f726f2061646472657373000000000000000000000000000000000000000000006064820152608401610952565b5073ffffffffffffffffffffffffffffffffffffffff1660009081526003602052604090205490565b6000828152600860205260409020805473ffffffffffffffffffffffffffffffffffffffff1633146119f0576040517f30cd747100000000000000000000000000000000000000000000000000000000815260040160405180910390fd5b80547fffffffffffffffffffffffff00000000000000000000000000000000000000001673ffffffffffffffffffffffffffffffffffffffff8316908117825560405184907fca0251ba80971adc7e92434b097ca40450b2a317013c51c5c5cb6ae74500bb0090600090a3505050565b6040517fd505accf00000000000000000000000000000000000000000000000000000000815273ffffffffffffffffffffffffffffffffffffffff88811660048301528781166024830152604482018790526064820186905260ff8516608483015260a4820184905260c4820183905289169063d505accf9060e401600060405180830381600087803b158015611af657600080fd5b505af1158015611b0a573d6000803e3d6000fd5b505050505050505050505050565b606060018054610852906138da565b600082815260086020908152604091829020825161012081018452815473ffffffffffffffffffffffffffffffffffffffff90811680835260018401549182169483019490945263ffffffff74010000000000000000000000000000000000000000820481169583019590955278010000000000000000000000000000000000000000000000008104851660608301527c0100000000000000000000000000000000000000000000000000000000900484166080820152600282015493841660a08201526fffffffffffffffffffffffffffffffff640100000000909404841660c082015260039091015480841660e083015270010000000000000000000000000000000090049092166101008301523314611c6f576040517f30cd747100000000000000000000000000000000000000000000000000000000815260040160405180910390fd5b60008161010001516fffffffffffffffffffffffffffffffff16611c9283612229565b611c9c919061395d565b90506000818360e001518460a0015163ffffffff16611cbb9190613974565b8460c00151611cca91906139ac565b6fffffffffffffffffffffffffffffffff16611ce6919061395d565b9050611d01836020015130611cfa88611812565b8588612c14565b611d12836020015130338488612c14565b8181867f032ff9aa8a62315b29028d4882bbd893b2debadb1d4b9a639e7d6efbcc222c0b866020015188604051611d6d92919073ffffffffffffffffffffffffffffffffffffffff9290921682521515602082015260400190565b60405180910390a450505060009182525060086020526040812080547fffffffffffffffffffffffff0000000000000000000000000000000000000000908116825560018201839055600282018054909116905560030155565b73ffffffffffffffffffffffffffffffffffffffff8216331415611e47576040517f08c379a000000000000000000000000000000000000000000000000000000000815260206004820152601960248201527f4552433732313a20617070726f766520746f2063616c6c6572000000000000006044820152606401610952565b33600081815260056020908152604080832073ffffffffffffffffffffffffffffffffffffffff87168085529083529281902080547fffffffffffffffffffffffffffffffffffffffffffffffffffffffffffffff001686151590811790915590519081529192917f17307eab39ab6107e8899845ad3d59bd9653f200f220920489ca2b5937696c31910160405180910390a35050565b611ee833836122dd565b611f74576040517f08c379a000000000000000000000000000000000000000000000000000000000815260206004820152603160248201527f4552433732313a207472616e736665722063616c6c6572206973206e6f74206f60448201527f776e6572206e6f7220617070726f7665640000000000000000000000000000006064820152608401610952565b611f8084848484612db0565b50505050565b60008181526002602052604090205460609073ffffffffffffffffffffffffffffffffffffffff1661203a576040517f08c379a000000000000000000000000000000000000000000000000000000000815260206004820152602f60248201527f4552433732314d657461646174613a2055524920717565727920666f72206e6f60448201527f6e6578697374656e7420746f6b656e00000000000000000000000000000000006064820152608401610952565b600061205160408051602081019091526000815290565b905060008151116120715760405180602001604052806000815250610e48565b8061207b84612e53565b60405160200161208c929190613a66565b6040516020818303038152906040529392505050565b60005b82811015611f8057600080308686858181106120c3576120c3613a8c565b90506020028101906120d59190613abb565b6040516120e3929190613b27565b600060405180830381855af49150503d806000811461211e576040519150601f19603f3d011682016040523d82523d6000602084013e612123565b606091505b5091509150811580156121335750835b156121745761214181612f85565b6040517f08c379a000000000000000000000000000000000000000000000000000000000815260040161095291906132ae565b50508080612181906139e0565b9150506120a5565b600081815260046020526040902080547fffffffffffffffffffffffff00000000000000000000000000000000000000001673ffffffffffffffffffffffffffffffffffffffff841690811790915581906121e382611812565b73ffffffffffffffffffffffffffffffffffffffff167f8c5be1e5ebec7d5bd14f71427d1e84f3dd0314c0f7b2291e5b200ac8c7c3b92560405160405180910390a45050565b600080826060015183604001516122409190613b37565b63ffffffff169050804210156122565750919050565b6000612262824261395d565b9050600061228f8560a0015163ffffffff16866080015163ffffffff168461228a9190613b85565b612fe4565b9050808560e001516fffffffffffffffffffffffffffffffff166122b39190613b99565b8560c001516fffffffffffffffffffffffffffffffff166122d49190613bd6565b95945050505050565b60008181526002602052604081205473ffffffffffffffffffffffffffffffffffffffff1661238e576040517f08c379a000000000000000000000000000000000000000000000000000000000815260206004820152602c60248201527f4552433732313a206f70657261746f7220717565727920666f72206e6f6e657860448201527f697374656e7420746f6b656e00000000000000000000000000000000000000006064820152608401610952565b600061239983611812565b90508073ffffffffffffffffffffffffffffffffffffffff168473ffffffffffffffffffffffffffffffffffffffff16148061240857508373ffffffffffffffffffffffffffffffffffffffff166123f084610ac6565b73ffffffffffffffffffffffffffffffffffffffff16145b80612445575073ffffffffffffffffffffffffffffffffffffffff80821660009081526005602090815260408083209388168352929052205460ff165b949350505050565b8273ffffffffffffffffffffffffffffffffffffffff1661246d82611812565b73ffffffffffffffffffffffffffffffffffffffff1614612510576040517f08c379a000000000000000000000000000000000000000000000000000000000815260206004820152602960248201527f4552433732313a207472616e73666572206f6620746f6b656e2074686174206960448201527f73206e6f74206f776e00000000000000000000000000000000000000000000006064820152608401610952565b73ffffffffffffffffffffffffffffffffffffffff82166125b2576040517f08c379a0000000000000000000000000000000000000000000000000000000008152602060048201526024808201527f4552433732313a207472616e7366657220746f20746865207a65726f2061646460448201527f72657373000000000000000000000000000000000000000000000000000000006064820152608401610952565b6125bd600082612189565b73ffffffffffffffffffffffffffffffffffffffff831660009081526003602052604081208054600192906125f390849061395d565b909155505073ffffffffffffffffffffffffffffffffffffffff8216600090815260036020526040812080546001929061262e908490613bd6565b909155505060008181526002602052604080822080547fffffffffffffffffffffffff00000000000000000000000000000000000000001673ffffffffffffffffffffffffffffffffffffffff86811691821790925591518493918716917fddf252ad1be2c89b69c2b068fc378daa952ba7f163c4a11628f55a4df523b3ef91a4505050565b60007f000000000000000000000000000000000000000000000000000000000000000073ffffffffffffffffffffffffffffffffffffffff168673ffffffffffffffffffffffffffffffffffffffff161480156127115750824710155b156127f2576040517f02b9446c00000000000000000000000000000000000000000000000000000000815260006004820181905273ffffffffffffffffffffffffffffffffffffffff878116602484015286811660448401526064830186905260848301919091527f000000000000000000000000000000000000000000000000000000000000000016906302b9446c90859060a401604080518083038185885af11580156127c4573d6000803e3d6000fd5b50505050506040513d601f19601f820116820180604052508101906127e99190613bee565b91506122d49050565b8115612978576040517fda5139ca00000000000000000000000000000000000000000000000000000000815273ffffffffffffffffffffffffffffffffffffffff878116600483015260248201859052600060448301527f0000000000000000000000000000000000000000000000000000000000000000169063da5139ca90606401602060405180830381865afa158015612892573d6000803e3d6000fd5b505050506040513d601f19601f820116820180604052508101906128b69190613c12565b6040517ff18d03cc00000000000000000000000000000000000000000000000000000000815273ffffffffffffffffffffffffffffffffffffffff888116600483015287811660248301528681166044830152606482018390529192507f00000000000000000000000000000000000000000000000000000000000000009091169063f18d03cc90608401600060405180830381600087803b15801561295b57600080fd5b505af115801561296f573d6000803e3d6000fd5b505050506122d4565b6040517f02b9446c00000000000000000000000000000000000000000000000000000000815273ffffffffffffffffffffffffffffffffffffffff87811660048301528681166024830152858116604483015260648201859052600060848301527f000000000000000000000000000000000000000000000000000000000000000016906302b9446c9060a40160408051808303816000875af1158015612a23573d6000803e3d6000fd5b505050506040513d601f19601f82011682018060405250810190612a479190613bee565b979650505050505050565b73ffffffffffffffffffffffffffffffffffffffff8216612acf576040517f08c379a000000000000000000000000000000000000000000000000000000000815260206004820181905260248201527f4552433732313a206d696e7420746f20746865207a65726f20616464726573736044820152606401610952565b60008181526002602052604090205473ffffffffffffffffffffffffffffffffffffffff1615612b5b576040517f08c379a000000000000000000000000000000000000000000000000000000000815260206004820152601c60248201527f4552433732313a20746f6b656e20616c7265616479206d696e746564000000006044820152606401610952565b73ffffffffffffffffffffffffffffffffffffffff82166000908152600360205260408120805460019290612b91908490613bd6565b909155505060008181526002602052604080822080547fffffffffffffffffffffffff00000000000000000000000000000000000000001673ffffffffffffffffffffffffffffffffffffffff861690811790915590518392907fddf252ad1be2c89b69c2b068fc378daa952ba7f163c4a11628f55a4df523b3ef908290a45050565b8015612cd7576040517ff18d03cc00000000000000000000000000000000000000000000000000000000815273ffffffffffffffffffffffffffffffffffffffff868116600483015285811660248301528481166044830152606482018490527f0000000000000000000000000000000000000000000000000000000000000000169063f18d03cc90608401600060405180830381600087803b158015612cba57600080fd5b505af1158015612cce573d6000803e3d6000fd5b50505050612da9565b6040517f97da6d3000000000000000000000000000000000000000000000000000000000815273ffffffffffffffffffffffffffffffffffffffff86811660048301528581166024830152848116604483015260006064830152608482018490527f000000000000000000000000000000000000000000000000000000000000000016906397da6d309060a40160408051808303816000875af1158015612d82573d6000803e3d6000fd5b505050506040513d601f19601f82011682018060405250810190612da69190613bee565b50505b5050505050565b612dbb84848461244d565b612dc784848484612ffa565b611f80576040517f08c379a000000000000000000000000000000000000000000000000000000000815260206004820152603260248201527f4552433732313a207472616e7366657220746f206e6f6e20455243373231526560448201527f63656976657220696d706c656d656e74657200000000000000000000000000006064820152608401610952565b606081612e9357505060408051808201909152600181527f3000000000000000000000000000000000000000000000000000000000000000602082015290565b8160005b8115612ebd5780612ea7816139e0565b9150612eb69050600a83613b85565b9150612e97565b60008167ffffffffffffffff811115612ed857612ed86136be565b6040519080825280601f01601f191660200182016040528015612f02576020820181803683370190505b5090505b841561244557612f1760018361395d565b9150612f24600a86613c2b565b612f2f906030613bd6565b60f81b818381518110612f4457612f44613a8c565b60200101907effffffffffffffffffffffffffffffffffffffffffffffffffffffffffffff1916908160001a905350612f7e600a86613b85565b9450612f06565b6060604482511015612fca57505060408051808201909152601d81527f5472616e73616374696f6e2072657665727465642073696c656e746c79000000602082015290565b6004820191508180602001905181019061083d9190613c3f565b6000818310612ff35781610e48565b5090919050565b600073ffffffffffffffffffffffffffffffffffffffff84163b156131df576040517f150b7a0200000000000000000000000000000000000000000000000000000000815273ffffffffffffffffffffffffffffffffffffffff85169063150b7a0290613071903390899088908890600401613cad565b6020604051808303816000875af19250505080156130ca575060408051601f3d9081017fffffffffffffffffffffffffffffffffffffffffffffffffffffffffffffffe01682019092526130c791810190613cf6565b60015b613194573d8080156130f8576040519150601f19603f3d011682016040523d82523d6000602084013e6130fd565b606091505b50805161318c576040517f08c379a000000000000000000000000000000000000000000000000000000000815260206004820152603260248201527f4552433732313a207472616e7366657220746f206e6f6e20455243373231526560448201527f63656976657220696d706c656d656e74657200000000000000000000000000006064820152608401610952565b805181602001fd5b7fffffffff00000000000000000000000000000000000000000000000000000000167f150b7a0200000000000000000000000000000000000000000000000000000000149050612445565b506001949350505050565b7fffffffff000000000000000000000000000000000000000000000000000000008116811461321857600080fd5b50565b60006020828403121561322d57600080fd5b8135610e48816131ea565b60005b8381101561325357818101518382015260200161323b565b83811115611f805750506000910152565b6000815180845261327c816020860160208601613238565b601f017fffffffffffffffffffffffffffffffffffffffffffffffffffffffffffffffe0169290920160200192915050565b602081526000610e486020830184613264565b73ffffffffffffffffffffffffffffffffffffffff8116811461321857600080fd5b803580151581146132f357600080fd5b919050565b60008060006060848603121561330d57600080fd5b8335613318816132c1565b9250613326602085016132e3565b9150613334604085016132e3565b90509250925092565b60006020828403121561334f57600080fd5b5035919050565b6000806040838503121561336957600080fd5b8235613374816132c1565b946020939093013593505050565b60008060006060848603121561339757600080fd5b83356133a2816132c1565b925060208401356133b2816132c1565b929592945050506040919091013590565b803563ffffffff811681146132f357600080fd5b80356fffffffffffffffffffffffffffffffff811681146132f357600080fd5b60008060008060008060008060006101208a8c03121561341657600080fd5b8935613421816132c1565b985060208a0135613431816132c1565b975061343f60408b016133c3565b965061344d60608b016133c3565b955061345b60808b016133c3565b945061346960a08b016133c3565b935061347760c08b016133d7565b925061348560e08b016133d7565b91506134946101008b016132e3565b90509295985092959850929598565b600080600080606085870312156134b957600080fd5b84359350602085013567ffffffffffffffff808211156134d857600080fd5b818701915087601f8301126134ec57600080fd5b8135818111156134fb57600080fd5b88602082850101111561350d57600080fd5b602083019550809450505050613525604086016132e3565b905092959194509250565b803560ff811681146132f357600080fd5b600080600080600060a0868803121561355957600080fd5b8535613564816132c1565b9450613572602087016132e3565b935061358060408701613530565b94979396509394606081013594506080013592915050565b6000602082840312156135aa57600080fd5b8135610e48816132c1565b600080604083850312156135c857600080fd5b8235915060208301356135da816132c1565b809150509250929050565b600080600080600080600080610100898b03121561360257600080fd5b883561360d816132c1565b9750602089013561361d816132c1565b9650604089013561362d816132c1565b9550606089013594506080890135935061364960a08a01613530565b925060c0890135915060e089013590509295985092959890939650565b6000806040838503121561367957600080fd5b82359150613689602084016132e3565b90509250929050565b600080604083850312156136a557600080fd5b82356136b0816132c1565b9150613689602084016132e3565b7f4e487b7100000000000000000000000000000000000000000000000000000000600052604160045260246000fd5b604051601f82017fffffffffffffffffffffffffffffffffffffffffffffffffffffffffffffffe016810167ffffffffffffffff81118282101715613734576137346136be565b604052919050565b600067ffffffffffffffff821115613756576137566136be565b50601f017fffffffffffffffffffffffffffffffffffffffffffffffffffffffffffffffe01660200190565b6000806000806080858703121561379857600080fd5b84356137a3816132c1565b935060208501356137b3816132c1565b925060408501359150606085013567ffffffffffffffff8111156137d657600080fd5b8501601f810187136137e757600080fd5b80356137fa6137f58261373c565b6136ed565b81815288602083850101111561380f57600080fd5b8160208401602083013760006020838301015280935050505092959194509250565b60008060006040848603121561384657600080fd5b833567ffffffffffffffff8082111561385e57600080fd5b818601915086601f83011261387257600080fd5b81358181111561388157600080fd5b8760208260051b850101111561389657600080fd5b60209283019550935061333491860190506132e3565b600080604083850312156138bf57600080fd5b82356138ca816132c1565b915060208301356135da816132c1565b600181811c908216806138ee57607f821691505b60208210811415613928577f4e487b7100000000000000000000000000000000000000000000000000000000600052602260045260246000fd5b50919050565b7f4e487b7100000000000000000000000000000000000000000000000000000000600052601160045260246000fd5b60008282101561396f5761396f61392e565b500390565b60006fffffffffffffffffffffffffffffffff808316818516818304811182151516156139a3576139a361392e565b02949350505050565b60006fffffffffffffffffffffffffffffffff8083168185168083038211156139d7576139d761392e565b01949350505050565b60007fffffffffffffffffffffffffffffffffffffffffffffffffffffffffffffffff821415613a1257613a1261392e565b5060010190565b60208152816020820152818360408301376000818301604090810191909152601f9092017fffffffffffffffffffffffffffffffffffffffffffffffffffffffffffffffe0160101919050565b60008351613a78818460208801613238565b8351908301906139d7818360208801613238565b7f4e487b7100000000000000000000000000000000000000000000000000000000600052603260045260246000fd5b60008083357fffffffffffffffffffffffffffffffffffffffffffffffffffffffffffffffe1843603018112613af057600080fd5b83018035915067ffffffffffffffff821115613b0b57600080fd5b602001915036819003821315613b2057600080fd5b9250929050565b8183823760009101908152919050565b600063ffffffff8083168185168083038211156139d7576139d761392e565b7f4e487b7100000000000000000000000000000000000000000000000000000000600052601260045260246000fd5b600082613b9457613b94613b56565b500490565b6000817fffffffffffffffffffffffffffffffffffffffffffffffffffffffffffffffff0483118215151615613bd157613bd161392e565b500290565b60008219821115613be957613be961392e565b500190565b60008060408385031215613c0157600080fd5b505080516020909101519092909150565b600060208284031215613c2457600080fd5b5051919050565b600082613c3a57613c3a613b56565b500690565b600060208284031215613c5157600080fd5b815167ffffffffffffffff811115613c6857600080fd5b8201601f81018413613c7957600080fd5b8051613c876137f58261373c565b818152856020838501011115613c9c57600080fd5b6122d4826020830160208601613238565b600073ffffffffffffffffffffffffffffffffffffffff808716835280861660208401525083604083015260806060830152613cec6080830184613264565b9695505050505050565b600060208284031215613d0857600080fd5b8151610e48816131ea56fea2646970667358221220b2744abf0a6946ce190ec786817fbeb3ef85a8e81ecc68f7a492a160b86119b264736f6c634300080a0033",
  "linkReferences": {},
  "deployedLinkReferences": {}
}