{
  "_format": "hh-sol-artifact-1",
  "contractName": "FuroStream",
  "sourceName": "contracts/base/FuroStream.sol",
  "abi": [
    {
      "inputs": [
        {
          "internalType": "contract IBentoBoxMinimal",
          "name": "_bentoBox",
          "type": "address"
        },
        {
          "internalType": "address",
          "name": "_wETH",
          "type": "address"
        }
      ],
      "stateMutability": "nonpayable",
      "type": "constructor"
    },
    {
      "inputs": [],
      "name": "InvalidEndTime",
      "type": "error"
    },
    {
      "inputs": [],
      "name": "InvalidStartTime",
      "type": "error"
    },
    {
      "inputs": [],
      "name": "InvalidWithdrawTooMuch",
      "type": "error"
    },
    {
      "inputs": [],
      "name": "NotRecipient",
      "type": "error"
    },
    {
      "inputs": [],
      "name": "NotSender",
      "type": "error"
    },
    {
      "inputs": [],
      "name": "NotSenderOrRecipient",
      "type": "error"
    },
    {
      "anonymous": false,
      "inputs": [
        {
          "indexed": true,
          "internalType": "address",
          "name": "owner",
          "type": "address"
        },
        {
          "indexed": true,
          "internalType": "address",
          "name": "approved",
          "type": "address"
        },
        {
          "indexed": true,
          "internalType": "uint256",
          "name": "tokenId",
          "type": "uint256"
        }
      ],
      "name": "Approval",
      "type": "event"
    },
    {
      "anonymous": false,
      "inputs": [
        {
          "indexed": true,
          "internalType": "address",
          "name": "owner",
          "type": "address"
        },
        {
          "indexed": true,
          "internalType": "address",
          "name": "operator",
          "type": "address"
        },
        {
          "indexed": false,
          "internalType": "bool",
          "name": "approved",
          "type": "bool"
        }
      ],
      "name": "ApprovalForAll",
      "type": "event"
    },
    {
      "anonymous": false,
      "inputs": [
        {
          "indexed": true,
          "internalType": "uint256",
          "name": "streamId",
          "type": "uint256"
        },
        {
          "indexed": true,
          "internalType": "uint256",
          "name": "senderBalance",
          "type": "uint256"
        },
        {
          "indexed": true,
          "internalType": "uint256",
          "name": "recipientBalance",
          "type": "uint256"
        },
        {
          "indexed": false,
          "internalType": "address",
          "name": "token",
          "type": "address"
        },
        {
          "indexed": false,
          "internalType": "bool",
          "name": "toBentoBox",
          "type": "bool"
        }
      ],
      "name": "LogCancelStream",
      "type": "event"
    },
    {
      "anonymous": false,
      "inputs": [
        {
          "indexed": true,
          "internalType": "uint256",
          "name": "streamId",
          "type": "uint256"
        },
        {
          "indexed": true,
          "internalType": "address",
          "name": "sender",
          "type": "address"
        },
        {
          "indexed": true,
          "internalType": "address",
          "name": "recipient",
          "type": "address"
        },
        {
          "indexed": false,
          "internalType": "address",
          "name": "token",
          "type": "address"
        },
        {
          "indexed": false,
          "internalType": "uint256",
          "name": "amount",
          "type": "uint256"
        },
        {
          "indexed": false,
          "internalType": "uint256",
          "name": "startTime",
          "type": "uint256"
        },
        {
          "indexed": false,
          "internalType": "uint256",
          "name": "endTime",
          "type": "uint256"
        },
        {
          "indexed": false,
          "internalType": "bool",
          "name": "fromBentoBox",
          "type": "bool"
        }
      ],
      "name": "LogCreateStream",
      "type": "event"
    },
    {
      "anonymous": false,
      "inputs": [
        {
          "indexed": true,
          "internalType": "uint256",
          "name": "streamId",
          "type": "uint256"
        },
        {
          "indexed": true,
          "internalType": "uint256",
          "name": "sharesToWithdraw",
          "type": "uint256"
        },
        {
          "indexed": true,
          "internalType": "address",
          "name": "withdrawTo",
          "type": "address"
        },
        {
          "indexed": false,
          "internalType": "address",
          "name": "token",
          "type": "address"
        },
        {
          "indexed": false,
          "internalType": "bool",
          "name": "toBentoBox",
          "type": "bool"
        }
      ],
      "name": "LogWithdrawFromStream",
      "type": "event"
    },
    {
      "anonymous": false,
      "inputs": [
        {
          "indexed": true,
          "internalType": "address",
          "name": "previousOwner",
          "type": "address"
        },
        {
          "indexed": true,
          "internalType": "address",
          "name": "newOwner",
          "type": "address"
        }
      ],
      "name": "OwnershipTransferred",
      "type": "event"
    },
    {
      "anonymous": false,
      "inputs": [
        {
          "indexed": true,
          "internalType": "address",
          "name": "from",
          "type": "address"
        },
        {
          "indexed": true,
          "internalType": "address",
          "name": "to",
          "type": "address"
        },
        {
          "indexed": true,
          "internalType": "uint256",
          "name": "tokenId",
          "type": "uint256"
        }
      ],
      "name": "Transfer",
      "type": "event"
    },
    {
      "inputs": [
        {
          "internalType": "address",
          "name": "to",
          "type": "address"
        },
        {
          "internalType": "uint256",
          "name": "tokenId",
          "type": "uint256"
        }
      ],
      "name": "approve",
      "outputs": [],
      "stateMutability": "nonpayable",
      "type": "function"
    },
    {
      "inputs": [
        {
          "internalType": "address",
          "name": "owner",
          "type": "address"
        }
      ],
      "name": "balanceOf",
      "outputs": [
        {
          "internalType": "uint256",
          "name": "",
          "type": "uint256"
        }
      ],
      "stateMutability": "view",
      "type": "function"
    },
    {
      "inputs": [
        {
          "internalType": "bytes[]",
          "name": "calls",
          "type": "bytes[]"
        },
        {
          "internalType": "bool",
          "name": "revertOnFail",
          "type": "bool"
        }
      ],
      "name": "batch",
      "outputs": [],
      "stateMutability": "payable",
      "type": "function"
    },
    {
      "inputs": [],
      "name": "bentoBox",
      "outputs": [
        {
          "internalType": "contract IBentoBoxMinimal",
          "name": "",
          "type": "address"
        }
      ],
      "stateMutability": "view",
      "type": "function"
    },
    {
      "inputs": [
        {
          "internalType": "uint256",
          "name": "streamId",
          "type": "uint256"
        },
        {
          "internalType": "bool",
          "name": "toBentoBox",
          "type": "bool"
        }
      ],
      "name": "cancelStream",
      "outputs": [
        {
          "internalType": "uint256",
          "name": "senderBalance",
          "type": "uint256"
        },
        {
          "internalType": "uint256",
          "name": "recipientBalance",
          "type": "uint256"
        }
      ],
      "stateMutability": "nonpayable",
      "type": "function"
    },
    {
      "inputs": [],
      "name": "claimOwnership",
      "outputs": [],
      "stateMutability": "nonpayable",
      "type": "function"
    },
    {
      "inputs": [
        {
          "internalType": "address",
          "name": "recipient",
          "type": "address"
        },
        {
          "internalType": "address",
          "name": "token",
          "type": "address"
        },
        {
          "internalType": "uint64",
          "name": "startTime",
          "type": "uint64"
        },
        {
          "internalType": "uint64",
          "name": "endTime",
          "type": "uint64"
        },
        {
          "internalType": "uint256",
          "name": "amount",
          "type": "uint256"
        },
        {
          "internalType": "bool",
          "name": "fromBentoBox",
          "type": "bool"
        }
      ],
      "name": "createStream",
      "outputs": [
        {
          "internalType": "uint256",
          "name": "streamId",
          "type": "uint256"
        },
        {
          "internalType": "uint256",
          "name": "depositedShares",
          "type": "uint256"
        }
      ],
      "stateMutability": "payable",
      "type": "function"
    },
    {
      "inputs": [
        {
          "internalType": "uint256",
          "name": "tokenId",
          "type": "uint256"
        }
      ],
      "name": "getApproved",
      "outputs": [
        {
          "internalType": "address",
          "name": "",
          "type": "address"
        }
      ],
      "stateMutability": "view",
      "type": "function"
    },
    {
      "inputs": [
        {
          "internalType": "uint256",
          "name": "streamId",
          "type": "uint256"
        }
      ],
      "name": "getStream",
      "outputs": [
        {
          "components": [
            {
              "internalType": "address",
              "name": "sender",
              "type": "address"
            },
            {
              "internalType": "address",
              "name": "token",
              "type": "address"
            },
            {
              "internalType": "uint128",
              "name": "depositedShares",
              "type": "uint128"
            },
            {
              "internalType": "uint128",
              "name": "withdrawnShares",
              "type": "uint128"
            },
            {
              "internalType": "uint64",
              "name": "startTime",
              "type": "uint64"
            },
            {
              "internalType": "uint64",
              "name": "endTime",
              "type": "uint64"
            }
          ],
          "internalType": "struct IFuroStream.Stream",
          "name": "",
          "type": "tuple"
        }
      ],
      "stateMutability": "view",
      "type": "function"
    },
    {
      "inputs": [
        {
          "internalType": "address",
          "name": "owner",
          "type": "address"
        },
        {
          "internalType": "address",
          "name": "operator",
          "type": "address"
        }
      ],
      "name": "isApprovedForAll",
      "outputs": [
        {
          "internalType": "bool",
          "name": "",
          "type": "bool"
        }
      ],
      "stateMutability": "view",
      "type": "function"
    },
    {
      "inputs": [],
      "name": "name",
      "outputs": [
        {
          "internalType": "string",
          "name": "",
          "type": "string"
        }
      ],
      "stateMutability": "view",
      "type": "function"
    },
    {
      "inputs": [],
      "name": "owner",
      "outputs": [
        {
          "internalType": "address",
          "name": "",
          "type": "address"
        }
      ],
      "stateMutability": "view",
      "type": "function"
    },
    {
      "inputs": [
        {
          "internalType": "uint256",
          "name": "tokenId",
          "type": "uint256"
        }
      ],
      "name": "ownerOf",
      "outputs": [
        {
          "internalType": "address",
          "name": "",
          "type": "address"
        }
      ],
      "stateMutability": "view",
      "type": "function"
    },
    {
      "inputs": [],
      "name": "pendingOwner",
      "outputs": [
        {
          "internalType": "address",
          "name": "",
          "type": "address"
        }
      ],
      "stateMutability": "view",
      "type": "function"
    },
    {
      "inputs": [
        {
          "internalType": "contract IERC20",
          "name": "token",
          "type": "address"
        },
        {
          "internalType": "address",
          "name": "from",
          "type": "address"
        },
        {
          "internalType": "address",
          "name": "to",
          "type": "address"
        },
        {
          "internalType": "uint256",
          "name": "amount",
          "type": "uint256"
        },
        {
          "internalType": "uint256",
          "name": "deadline",
          "type": "uint256"
        },
        {
          "internalType": "uint8",
          "name": "v",
          "type": "uint8"
        },
        {
          "internalType": "bytes32",
          "name": "r",
          "type": "bytes32"
        },
        {
          "internalType": "bytes32",
          "name": "s",
          "type": "bytes32"
        }
      ],
      "name": "permitToken",
      "outputs": [],
      "stateMutability": "nonpayable",
      "type": "function"
    },
    {
      "inputs": [
        {
          "internalType": "address",
          "name": "from",
          "type": "address"
        },
        {
          "internalType": "address",
          "name": "to",
          "type": "address"
        },
        {
          "internalType": "uint256",
          "name": "tokenId",
          "type": "uint256"
        }
      ],
      "name": "safeTransferFrom",
      "outputs": [],
      "stateMutability": "nonpayable",
      "type": "function"
    },
    {
      "inputs": [
        {
          "internalType": "address",
          "name": "from",
          "type": "address"
        },
        {
          "internalType": "address",
          "name": "to",
          "type": "address"
        },
        {
          "internalType": "uint256",
          "name": "tokenId",
          "type": "uint256"
        },
        {
          "internalType": "bytes",
          "name": "_data",
          "type": "bytes"
        }
      ],
      "name": "safeTransferFrom",
      "outputs": [],
      "stateMutability": "nonpayable",
      "type": "function"
    },
    {
      "inputs": [
        {
          "internalType": "address",
          "name": "operator",
          "type": "address"
        },
        {
          "internalType": "bool",
          "name": "approved",
          "type": "bool"
        }
      ],
      "name": "setApprovalForAll",
      "outputs": [],
      "stateMutability": "nonpayable",
      "type": "function"
    },
    {
      "inputs": [
        {
          "internalType": "address",
          "name": "user",
          "type": "address"
        },
        {
          "internalType": "bool",
          "name": "approved",
          "type": "bool"
        },
        {
          "internalType": "uint8",
          "name": "v",
          "type": "uint8"
        },
        {
          "internalType": "bytes32",
          "name": "r",
          "type": "bytes32"
        },
        {
          "internalType": "bytes32",
          "name": "s",
          "type": "bytes32"
        }
      ],
      "name": "setBentoBoxApproval",
      "outputs": [],
      "stateMutability": "nonpayable",
      "type": "function"
    },
    {
      "inputs": [
        {
          "internalType": "uint256",
          "name": "streamId",
          "type": "uint256"
        }
      ],
      "name": "streamBalanceOf",
      "outputs": [
        {
          "internalType": "uint256",
          "name": "senderBalance",
          "type": "uint256"
        },
        {
          "internalType": "uint256",
          "name": "recipientBalance",
          "type": "uint256"
        }
      ],
      "stateMutability": "view",
      "type": "function"
    },
    {
      "inputs": [],
      "name": "streamIds",
      "outputs": [
        {
          "internalType": "uint256",
          "name": "",
          "type": "uint256"
        }
      ],
      "stateMutability": "view",
      "type": "function"
    },
    {
      "inputs": [
        {
          "internalType": "uint256",
          "name": "",
          "type": "uint256"
        }
      ],
      "name": "streams",
      "outputs": [
        {
          "internalType": "address",
          "name": "sender",
          "type": "address"
        },
        {
          "internalType": "address",
          "name": "token",
          "type": "address"
        },
        {
          "internalType": "uint128",
          "name": "depositedShares",
          "type": "uint128"
        },
        {
          "internalType": "uint128",
          "name": "withdrawnShares",
          "type": "uint128"
        },
        {
          "internalType": "uint64",
          "name": "startTime",
          "type": "uint64"
        },
        {
          "internalType": "uint64",
          "name": "endTime",
          "type": "uint64"
        }
      ],
      "stateMutability": "view",
      "type": "function"
    },
    {
      "inputs": [
        {
          "internalType": "bytes4",
          "name": "interfaceId",
          "type": "bytes4"
        }
      ],
      "name": "supportsInterface",
      "outputs": [
        {
          "internalType": "bool",
          "name": "",
          "type": "bool"
        }
      ],
      "stateMutability": "view",
      "type": "function"
    },
    {
      "inputs": [],
      "name": "symbol",
      "outputs": [
        {
          "internalType": "string",
          "name": "",
          "type": "string"
        }
      ],
      "stateMutability": "view",
      "type": "function"
    },
    {
      "inputs": [
        {
          "internalType": "uint256",
          "name": "tokenId",
          "type": "uint256"
        }
      ],
      "name": "tokenURI",
      "outputs": [
        {
          "internalType": "string",
          "name": "",
          "type": "string"
        }
      ],
      "stateMutability": "view",
      "type": "function"
    },
    {
      "inputs": [
        {
          "internalType": "address",
          "name": "from",
          "type": "address"
        },
        {
          "internalType": "address",
          "name": "to",
          "type": "address"
        },
        {
          "internalType": "uint256",
          "name": "tokenId",
          "type": "uint256"
        }
      ],
      "name": "transferFrom",
      "outputs": [],
      "stateMutability": "nonpayable",
      "type": "function"
    },
    {
      "inputs": [
        {
          "internalType": "address",
          "name": "newOwner",
          "type": "address"
        },
        {
          "internalType": "bool",
          "name": "direct",
          "type": "bool"
        },
        {
          "internalType": "bool",
          "name": "renounce",
          "type": "bool"
        }
      ],
      "name": "transferOwnership",
      "outputs": [],
      "stateMutability": "nonpayable",
      "type": "function"
    },
    {
      "inputs": [
        {
          "internalType": "uint256",
          "name": "streamId",
          "type": "uint256"
        },
        {
          "internalType": "address",
          "name": "sender",
          "type": "address"
        }
      ],
      "name": "updateSender",
      "outputs": [],
      "stateMutability": "nonpayable",
      "type": "function"
    },
    {
      "inputs": [
        {
          "internalType": "uint256",
          "name": "streamId",
          "type": "uint256"
        },
        {
          "internalType": "uint128",
          "name": "topUpAmount",
          "type": "uint128"
        },
        {
          "internalType": "uint64",
          "name": "extendTime",
          "type": "uint64"
        },
        {
          "internalType": "bool",
          "name": "fromBentoBox",
          "type": "bool"
        }
      ],
      "name": "updateStream",
      "outputs": [
        {
          "internalType": "uint256",
          "name": "depositedShares",
          "type": "uint256"
        }
      ],
      "stateMutability": "nonpayable",
      "type": "function"
    },
    {
      "inputs": [],
      "name": "wETH",
      "outputs": [
        {
          "internalType": "address",
          "name": "",
          "type": "address"
        }
      ],
      "stateMutability": "view",
      "type": "function"
    },
    {
      "inputs": [
        {
          "internalType": "uint256",
          "name": "streamId",
          "type": "uint256"
        },
        {
          "internalType": "uint256",
          "name": "sharesToWithdraw",
          "type": "uint256"
        },
        {
          "internalType": "address",
          "name": "withdrawTo",
          "type": "address"
        },
        {
          "internalType": "bool",
          "name": "toBentoBox",
          "type": "bool"
        },
        {
          "internalType": "bytes",
          "name": "taskData",
          "type": "bytes"
        }
      ],
      "name": "withdrawFromStream",
      "outputs": [
        {
          "internalType": "uint256",
          "name": "recipientBalance",
          "type": "uint256"
        },
        {
          "internalType": "address",
          "name": "to",
          "type": "address"
        }
      ],
      "stateMutability": "nonpayable",
      "type": "function"
    }
  ],
  "bytecode": "0x60c06040523480156200001157600080fd5b50604051620043d0380380620043d0833981016040819052620000349162000212565b604080518082018252600b81526a4675726f2053747265616d60a81b6020808301918252835180850190945260048452634655524f60e01b908401528151919291620000839160009162000153565b5080516200009990600190602084019062000153565b5050600680546001600160a01b031916339081179091556040519091506000907f8be0079c531659141344cd1fd0a4f28419497f9722a3daafe3b4186f6b6457e0908290a36001600160a01b03808316608081905290821660a0526103e86008556040805163577268d960e11b8152905163aee4d1b29160048082019260009290919082900301818387803b1580156200013257600080fd5b505af115801562000147573d6000803e3d6000fd5b5050505050506200028e565b828054620001619062000251565b90600052602060002090601f016020900481019282620001855760008555620001d0565b82601f10620001a057805160ff1916838001178555620001d0565b82800160010185558215620001d0579182015b82811115620001d0578251825591602001919060010190620001b3565b50620001de929150620001e2565b5090565b5b80821115620001de5760008155600101620001e3565b6001600160a01b03811681146200020f57600080fd5b50565b600080604083850312156200022657600080fd5b82516200023381620001f9565b60208401519092506200024681620001f9565b809150509250929050565b600181811c908216806200026657607f821691505b602082108114156200028857634e487b7160e01b600052602260045260246000fd5b50919050565b60805160a0516140e4620002ec600039600081816108950152612c6001526000818161052a0152818161112501528181612a7f01528181612b4301528181612d2301528181612df301528181612ebd0152612f8301526140e46000f3fe6080604052600436106101d85760003560e01c80636b2ace8711610102578063b88d4fde11610095578063e30c397811610064578063e30c397814610800578063e985e9c51461082d578063f242862114610883578063f8c7e588146108b757600080fd5b8063b88d4fde1461079a578063c14cf8f0146107ba578063c87b56dd146107cd578063d2423b51146107ed57600080fd5b80638da5cb5b116100d15780638da5cb5b1461072257806395d89b411461074f5780639fd2640e14610764578063a22cb4651461077a57600080fd5b80636b2ace871461051857806370a082311461054c5780637c516e941461057a578063894e9a0d1461059a57600080fd5b80632b9134531161017a5780634e71e0c8116101495780634e71e0c8146103ba57806359f71c1a146103cf5780636352211e146103ef57806364d60d911461040f57600080fd5b80632b9134531461031057806342842e0e14610330578063489bb0b21461035057806348bae94b1461037057600080fd5b8063081812fc116101b6578063081812fc14610256578063095ea7b31461029b57806323b872dd146102bb57806325958d8f146102db57600080fd5b806301ffc9a7146101dd57806306fdde0314610212578063078dfbe714610234575b600080fd5b3480156101e957600080fd5b506101fd6101f8366004613570565b6108d7565b60405190151581526020015b60405180910390f35b34801561021e57600080fd5b506102276109bc565b6040516102099190613603565b34801561024057600080fd5b5061025461024f36600461364d565b610a4e565b005b34801561026257600080fd5b50610276610271366004613692565b610c3f565b60405173ffffffffffffffffffffffffffffffffffffffff9091168152602001610209565b3480156102a757600080fd5b506102546102b63660046136ab565b610d19565b3480156102c757600080fd5b506102546102d63660046136d7565b610ea1565b3480156102e757600080fd5b506102fb6102f6366004613692565b610f42565b60408051928352602083019190915201610209565b34801561031c57600080fd5b5061025461032b366004613718565b610ffc565b34801561033c57600080fd5b5061025461034b3660046136d7565b6110a0565b34801561035c57600080fd5b5061025461036b366004613759565b6110bb565b34801561037c57600080fd5b5061039061038b3660046137b0565b611188565b6040805192835273ffffffffffffffffffffffffffffffffffffffff909116602083015201610209565b3480156103c657600080fd5b506102546114ee565b3480156103db57600080fd5b506102fb6103ea366004613858565b611605565b3480156103fb57600080fd5b5061027661040a366004613692565b611855565b34801561041b57600080fd5b506104b061042a366004613692565b600960205260009081526040902080546001820154600283015460039093015473ffffffffffffffffffffffffffffffffffffffff9283169391909216916fffffffffffffffffffffffffffffffff808316927001000000000000000000000000000000009004169067ffffffffffffffff808216916801000000000000000090041686565b6040805173ffffffffffffffffffffffffffffffffffffffff97881681529690951660208701526fffffffffffffffffffffffffffffffff938416948601949094529116606084015267ffffffffffffffff90811660808401521660a082015260c001610209565b34801561052457600080fd5b506102767f000000000000000000000000000000000000000000000000000000000000000081565b34801561055857600080fd5b5061056c610567366004613884565b611907565b604051908152602001610209565b34801561058657600080fd5b506102546105953660046138a1565b6119d5565b3480156105a657600080fd5b506106946105b5366004613692565b6040805160c081018252600080825260208201819052918101829052606081018290526080810182905260a081019190915250600090815260096020908152604091829020825160c081018452815473ffffffffffffffffffffffffffffffffffffffff90811682526001830154169281019290925260028101546fffffffffffffffffffffffffffffffff808216948401949094527001000000000000000000000000000000009004909216606082015260039091015467ffffffffffffffff8082166080840152680100000000000000009091041660a082015290565b6040516102099190600060c08201905073ffffffffffffffffffffffffffffffffffffffff8084511683528060208501511660208401525060408301516fffffffffffffffffffffffffffffffff80821660408501528060608601511660608501525050608083015167ffffffffffffffff80821660808501528060a08601511660a0850152505092915050565b34801561072e57600080fd5b506006546102769073ffffffffffffffffffffffffffffffffffffffff1681565b34801561075b57600080fd5b50610227611a8d565b34801561077057600080fd5b5061056c60085481565b34801561078657600080fd5b50610254610795366004613922565b611a9c565b3480156107a657600080fd5b506102546107b5366004613a12565b611bb3565b6102fb6107c8366004613ad9565b611c5b565b3480156107d957600080fd5b506102276107e8366004613692565b611feb565b6102546107fb366004613b4a565b612108565b34801561080c57600080fd5b506007546102769073ffffffffffffffffffffffffffffffffffffffff1681565b34801561083957600080fd5b506101fd610848366004613bc5565b73ffffffffffffffffffffffffffffffffffffffff918216600090815260056020908152604080832093909416825291909152205460ff1690565b34801561088f57600080fd5b506102767f000000000000000000000000000000000000000000000000000000000000000081565b3480156108c357600080fd5b5061056c6108d2366004613bf3565b6121ef565b60007fffffffff0000000000000000000000000000000000000000000000000000000082167f80ac58cd00000000000000000000000000000000000000000000000000000000148061096a57507fffffffff0000000000000000000000000000000000000000000000000000000082167f5b5e139f00000000000000000000000000000000000000000000000000000000145b806109b657507f01ffc9a7000000000000000000000000000000000000000000000000000000007fffffffff000000000000000000000000000000000000000000000000000000008316145b92915050565b6060600080546109cb90613c57565b80601f01602080910402602001604051908101604052809291908181526020018280546109f790613c57565b8015610a445780601f10610a1957610100808354040283529160200191610a44565b820191906000526020600020905b815481529060010190602001808311610a2757829003601f168201915b5050505050905090565b60065473ffffffffffffffffffffffffffffffffffffffff163314610ad4576040517f08c379a000000000000000000000000000000000000000000000000000000000815260206004820181905260248201527f4f776e61626c653a2063616c6c6572206973206e6f7420746865206f776e657260448201526064015b60405180910390fd5b8115610bf95773ffffffffffffffffffffffffffffffffffffffff8316151580610afb5750805b610b61576040517f08c379a000000000000000000000000000000000000000000000000000000000815260206004820152601560248201527f4f776e61626c653a207a65726f206164647265737300000000000000000000006044820152606401610acb565b60065460405173ffffffffffffffffffffffffffffffffffffffff8086169216907f8be0079c531659141344cd1fd0a4f28419497f9722a3daafe3b4186f6b6457e090600090a36006805473ffffffffffffffffffffffffffffffffffffffff85167fffffffffffffffffffffffff000000000000000000000000000000000000000091821617909155600780549091169055505050565b600780547fffffffffffffffffffffffff00000000000000000000000000000000000000001673ffffffffffffffffffffffffffffffffffffffff85161790555b505050565b60008181526002602052604081205473ffffffffffffffffffffffffffffffffffffffff16610cf0576040517f08c379a000000000000000000000000000000000000000000000000000000000815260206004820152602c60248201527f4552433732313a20617070726f76656420717565727920666f72206e6f6e657860448201527f697374656e7420746f6b656e00000000000000000000000000000000000000006064820152608401610acb565b5060009081526004602052604090205473ffffffffffffffffffffffffffffffffffffffff1690565b6000610d2482611855565b90508073ffffffffffffffffffffffffffffffffffffffff168373ffffffffffffffffffffffffffffffffffffffff161415610de2576040517f08c379a000000000000000000000000000000000000000000000000000000000815260206004820152602160248201527f4552433732313a20617070726f76616c20746f2063757272656e74206f776e6560448201527f72000000000000000000000000000000000000000000000000000000000000006064820152608401610acb565b3373ffffffffffffffffffffffffffffffffffffffff82161480610e0b5750610e0b8133610848565b610e97576040517f08c379a000000000000000000000000000000000000000000000000000000000815260206004820152603860248201527f4552433732313a20617070726f76652063616c6c6572206973206e6f74206f7760448201527f6e6572206e6f7220617070726f76656420666f7220616c6c00000000000000006064820152608401610acb565b610c3a8383612475565b610eab3382612515565b610f37576040517f08c379a000000000000000000000000000000000000000000000000000000000815260206004820152603160248201527f4552433732313a207472616e736665722063616c6c6572206973206e6f74206f60448201527f776e6572206e6f7220617070726f7665640000000000000000000000000000006064820152608401610acb565b610c3a838383612685565b6000818152600960209081526040808320815160c081018352815473ffffffffffffffffffffffffffffffffffffffff90811682526001830154169381019390935260028101546fffffffffffffffffffffffffffffffff80821693850193909352700100000000000000000000000000000000900490911660608301526003015467ffffffffffffffff8082166080840152680100000000000000009091041660a08201528190610ff3906128ec565b91509150915091565b6000828152600960205260409020805473ffffffffffffffffffffffffffffffffffffffff16331461105a576040517fb2c3aa6b00000000000000000000000000000000000000000000000000000000815260040160405180910390fd5b80547fffffffffffffffffffffffff00000000000000000000000000000000000000001673ffffffffffffffffffffffffffffffffffffffff9290921691909117905550565b610c3a83838360405180602001604052806000815250611bb3565b6040517fc0a47c9300000000000000000000000000000000000000000000000000000000815273ffffffffffffffffffffffffffffffffffffffff8681166004830152306024830152851515604483015260ff851660648301526084820184905260a482018390527f0000000000000000000000000000000000000000000000000000000000000000169063c0a47c939060c401600060405180830381600087803b15801561116957600080fd5b505af115801561117d573d6000803e3d6000fd5b505050505050505050565b600080600061119689611855565b60008a81526009602052604090205490915073ffffffffffffffffffffffffffffffffffffffff1633148015906111e357503373ffffffffffffffffffffffffffffffffffffffff821614155b1561121a576040517fc821e7f000000000000000000000000000000000000000000000000000000000815260040160405180910390fd5b600089815260096020908152604091829020825160c081018452815473ffffffffffffffffffffffffffffffffffffffff90811682526001830154169281019290925260028101546fffffffffffffffffffffffffffffffff8082169484019490945270010000000000000000000000000000000090049092166060820152600382015467ffffffffffffffff8082166080840152680100000000000000009091041660a08201526112cb906128ec565b94505088841015611308576040517f6a1f509a00000000000000000000000000000000000000000000000000000000815260040160405180910390fd5b888160020160108282829054906101000a90046fffffffffffffffffffffffffffffffff166113379190613cda565b92506101000a8154816fffffffffffffffffffffffffffffffff02191690836fffffffffffffffffffffffffffffffff1602179055508173ffffffffffffffffffffffffffffffffffffffff163373ffffffffffffffffffffffffffffffffffffffff161480156113bd575073ffffffffffffffffffffffffffffffffffffffff881615155b156113ca578792506113ce565b8192505b60018101546113f69073ffffffffffffffffffffffffffffffffffffffff1630858c8b612a1d565b8415611483576040517f330df28200000000000000000000000000000000000000000000000000000000815273ffffffffffffffffffffffffffffffffffffffff84169063330df282906114509089908990600401613d0e565b600060405180830381600087803b15801561146a57600080fd5b505af115801561147e573d6000803e3d6000fd5b505050505b60018101546040805173ffffffffffffffffffffffffffffffffffffffff92831681528915156020820152918a16918b918d917f6b6d88993c7a93c6b46840457366b2fe067cb9cee48fb0d0317767183a472dca910160405180910390a45050965096945050505050565b60075473ffffffffffffffffffffffffffffffffffffffff16338114611570576040517f08c379a000000000000000000000000000000000000000000000000000000000815260206004820181905260248201527f4f776e61626c653a2063616c6c657220213d2070656e64696e67206f776e65726044820152606401610acb565b60065460405173ffffffffffffffffffffffffffffffffffffffff8084169216907f8be0079c531659141344cd1fd0a4f28419497f9722a3daafe3b4186f6b6457e090600090a36006805473ffffffffffffffffffffffffffffffffffffffff9092167fffffffffffffffffffffffff0000000000000000000000000000000000000000928316179055600780549091169055565b600080600061161385611855565b60008681526009602052604090205490915073ffffffffffffffffffffffffffffffffffffffff16331480159061166057503373ffffffffffffffffffffffffffffffffffffffff821614155b15611697576040517fc821e7f000000000000000000000000000000000000000000000000000000000815260040160405180910390fd5b600085815260096020908152604091829020825160c081018452815473ffffffffffffffffffffffffffffffffffffffff90811682526001830154169281019290925260028101546fffffffffffffffffffffffffffffffff808216948401949094527001000000000000000000000000000000009004909216606082015260039091015467ffffffffffffffff8082166080840152680100000000000000009091041660a0820152611749816128ec565b6000888152600960209081526040822080547fffffffffffffffffffffffff0000000000000000000000000000000000000000908116825560018201805490911690556002810192909255600390910180547fffffffffffffffffffffffffffffffff0000000000000000000000000000000016905583015191955093506117d49030848689612a1d565b6117e981602001513083600001518789612a1d565b8284877fac7201fe7a6724de1c6e75def6568971a4b1785dafe85919609b16fa022cb58f84602001518960405161184492919073ffffffffffffffffffffffffffffffffffffffff9290921682521515602082015260400190565b60405180910390a450509250929050565b60008181526002602052604081205473ffffffffffffffffffffffffffffffffffffffff16806109b6576040517f08c379a000000000000000000000000000000000000000000000000000000000815260206004820152602960248201527f4552433732313a206f776e657220717565727920666f72206e6f6e657869737460448201527f656e7420746f6b656e00000000000000000000000000000000000000000000006064820152608401610acb565b600073ffffffffffffffffffffffffffffffffffffffff82166119ac576040517f08c379a000000000000000000000000000000000000000000000000000000000815260206004820152602a60248201527f4552433732313a2062616c616e636520717565727920666f7220746865207a6560448201527f726f2061646472657373000000000000000000000000000000000000000000006064820152608401610acb565b5073ffffffffffffffffffffffffffffffffffffffff1660009081526003602052604090205490565b6040517fd505accf00000000000000000000000000000000000000000000000000000000815273ffffffffffffffffffffffffffffffffffffffff88811660048301528781166024830152604482018790526064820186905260ff8516608483015260a4820184905260c4820183905289169063d505accf9060e401600060405180830381600087803b158015611a6b57600080fd5b505af1158015611a7f573d6000803e3d6000fd5b505050505050505050505050565b6060600180546109cb90613c57565b73ffffffffffffffffffffffffffffffffffffffff8216331415611b1c576040517f08c379a000000000000000000000000000000000000000000000000000000000815260206004820152601960248201527f4552433732313a20617070726f766520746f2063616c6c6572000000000000006044820152606401610acb565b33600081815260056020908152604080832073ffffffffffffffffffffffffffffffffffffffff87168085529083529281902080547fffffffffffffffffffffffffffffffffffffffffffffffffffffffffffffff001686151590811790915590519081529192917f17307eab39ab6107e8899845ad3d59bd9653f200f220920489ca2b5937696c31910160405180910390a35050565b611bbd3383612515565b611c49576040517f08c379a000000000000000000000000000000000000000000000000000000000815260206004820152603160248201527f4552433732313a207472616e736665722063616c6c6572206973206e6f74206f60448201527f776e6572206e6f7220617070726f7665640000000000000000000000000000006064820152608401610acb565b611c5584848484612bb9565b50505050565b600080428667ffffffffffffffff161015611ca2576040517fb290253c00000000000000000000000000000000000000000000000000000000815260040160405180910390fd5b8567ffffffffffffffff168567ffffffffffffffff1611611cef576040517f38af65f700000000000000000000000000000000000000000000000000000000815260040160405180910390fd5b611cfc8733308787612c5c565b600880549192506000611d0e83613d5b565b919050559150611d1e8883612ffc565b6040518060c001604052803373ffffffffffffffffffffffffffffffffffffffff1681526020018873ffffffffffffffffffffffffffffffffffffffff168152602001826fffffffffffffffffffffffffffffffff16815260200160006fffffffffffffffffffffffffffffffff1681526020018767ffffffffffffffff1681526020018667ffffffffffffffff168152506009600084815260200190815260200160002060008201518160000160006101000a81548173ffffffffffffffffffffffffffffffffffffffff021916908373ffffffffffffffffffffffffffffffffffffffff16021790555060208201518160010160006101000a81548173ffffffffffffffffffffffffffffffffffffffff021916908373ffffffffffffffffffffffffffffffffffffffff16021790555060408201518160020160006101000a8154816fffffffffffffffffffffffffffffffff02191690836fffffffffffffffffffffffffffffffff16021790555060608201518160020160106101000a8154816fffffffffffffffffffffffffffffffff02191690836fffffffffffffffffffffffffffffffff16021790555060808201518160030160006101000a81548167ffffffffffffffff021916908367ffffffffffffffff16021790555060a08201518160030160086101000a81548167ffffffffffffffff021916908367ffffffffffffffff1602179055509050508773ffffffffffffffffffffffffffffffffffffffff163373ffffffffffffffffffffffffffffffffffffffff16837ffbaafcbef20e487c958ff621770e21c0c8adac147a7e60d4125637a78a62ee818a858b8b8a604051611fd895949392919073ffffffffffffffffffffffffffffffffffffffff959095168552602085019390935267ffffffffffffffff91821660408501521660608301521515608082015260a00190565b60405180910390a4965096945050505050565b60008181526002602052604090205460609073ffffffffffffffffffffffffffffffffffffffff1661209f576040517f08c379a000000000000000000000000000000000000000000000000000000000815260206004820152602f60248201527f4552433732314d657461646174613a2055524920717565727920666f72206e6f60448201527f6e6578697374656e7420746f6b656e00000000000000000000000000000000006064820152608401610acb565b60006120b660408051602081019091526000815290565b905060008151116120d65760405180602001604052806000815250612101565b806120e0846131be565b6040516020016120f1929190613d94565b6040516020818303038152906040525b9392505050565b60005b82811015611c55576000803086868581811061212957612129613dba565b905060200281019061213b9190613de9565b604051612149929190613e55565b600060405180830381855af49150503d8060008114612184576040519150601f19603f3d011682016040523d82523d6000602084013e612189565b606091505b5091509150811580156121995750835b156121da576121a7816132f0565b6040517f08c379a0000000000000000000000000000000000000000000000000000000008152600401610acb9190613603565b505080806121e790613d5b565b91505061210b565b6000848152600960205260408120805473ffffffffffffffffffffffffffffffffffffffff16331461224d576040517fb2c3aa6b00000000000000000000000000000000000000000000000000000000815260040160405180910390fd5b600061225887611855565b6040805160c081018252845473ffffffffffffffffffffffffffffffffffffffff9081168252600186015416602082015260028501546fffffffffffffffffffffffffffffffff8082169383019390935270010000000000000000000000000000000090049091166060820152600384015467ffffffffffffffff8082166080840152680100000000000000009091041660a08201529091506000906122fd906128ec565b9150506123328360010160009054906101000a900473ffffffffffffffffffffffffffffffffffffffff163084846001612a1d565b808360020160108282829054906101000a90046fffffffffffffffffffffffffffffffff166123619190613cda565b82546101009290920a6fffffffffffffffffffffffffffffffff818102199093169183160217909155600185015485546123bc935073ffffffffffffffffffffffffffffffffffffffff9182169291169085908b1689612c5c565b60028401805491955085916000906123e79084906fffffffffffffffffffffffffffffffff16613cda565b92506101000a8154816fffffffffffffffffffffffffffffffff02191690836fffffffffffffffffffffffffffffffff160217905550858360030160088282829054906101000a900467ffffffffffffffff166124449190613e65565b92506101000a81548167ffffffffffffffff021916908367ffffffffffffffff160217905550505050949350505050565b600081815260046020526040902080547fffffffffffffffffffffffff00000000000000000000000000000000000000001673ffffffffffffffffffffffffffffffffffffffff841690811790915581906124cf82611855565b73ffffffffffffffffffffffffffffffffffffffff167f8c5be1e5ebec7d5bd14f71427d1e84f3dd0314c0f7b2291e5b200ac8c7c3b92560405160405180910390a45050565b60008181526002602052604081205473ffffffffffffffffffffffffffffffffffffffff166125c6576040517f08c379a000000000000000000000000000000000000000000000000000000000815260206004820152602c60248201527f4552433732313a206f70657261746f7220717565727920666f72206e6f6e657860448201527f697374656e7420746f6b656e00000000000000000000000000000000000000006064820152608401610acb565b60006125d183611855565b90508073ffffffffffffffffffffffffffffffffffffffff168473ffffffffffffffffffffffffffffffffffffffff16148061264057508373ffffffffffffffffffffffffffffffffffffffff1661262884610c3f565b73ffffffffffffffffffffffffffffffffffffffff16145b8061267d575073ffffffffffffffffffffffffffffffffffffffff80821660009081526005602090815260408083209388168352929052205460ff165b949350505050565b8273ffffffffffffffffffffffffffffffffffffffff166126a582611855565b73ffffffffffffffffffffffffffffffffffffffff1614612748576040517f08c379a000000000000000000000000000000000000000000000000000000000815260206004820152602960248201527f4552433732313a207472616e73666572206f6620746f6b656e2074686174206960448201527f73206e6f74206f776e00000000000000000000000000000000000000000000006064820152608401610acb565b73ffffffffffffffffffffffffffffffffffffffff82166127ea576040517f08c379a0000000000000000000000000000000000000000000000000000000008152602060048201526024808201527f4552433732313a207472616e7366657220746f20746865207a65726f2061646460448201527f72657373000000000000000000000000000000000000000000000000000000006064820152608401610acb565b6127f5600082612475565b73ffffffffffffffffffffffffffffffffffffffff8316600090815260036020526040812080546001929061282b908490613e88565b909155505073ffffffffffffffffffffffffffffffffffffffff82166000908152600360205260408120805460019290612866908490613e9f565b909155505060008181526002602052604080822080547fffffffffffffffffffffffff00000000000000000000000000000000000000001673ffffffffffffffffffffffffffffffffffffffff86811691821790925591518493918716917fddf252ad1be2c89b69c2b068fc378daa952ba7f163c4a11628f55a4df523b3ef91a4505050565b600080826080015167ffffffffffffffff164211612922575050604001516fffffffffffffffffffffffffffffffff1690600090565b428360a0015167ffffffffffffffff1611612968578260600151836040015161294b9190613eb7565b6fffffffffffffffffffffffffffffffff16905060009150915091565b6000836080015167ffffffffffffffff16426129849190613e88565b905083606001516fffffffffffffffffffffffffffffffff1684608001518560a001516129b19190613ee8565b67ffffffffffffffff168286604001516fffffffffffffffffffffffffffffffff166129dd9190613f09565b6129e79190613f75565b6129f19190613e88565b91508184604001516fffffffffffffffffffffffffffffffff16612a159190613e88565b925050915091565b8015612ae0576040517ff18d03cc00000000000000000000000000000000000000000000000000000000815273ffffffffffffffffffffffffffffffffffffffff868116600483015285811660248301528481166044830152606482018490527f0000000000000000000000000000000000000000000000000000000000000000169063f18d03cc90608401600060405180830381600087803b158015612ac357600080fd5b505af1158015612ad7573d6000803e3d6000fd5b50505050612bb2565b6040517f97da6d3000000000000000000000000000000000000000000000000000000000815273ffffffffffffffffffffffffffffffffffffffff86811660048301528581166024830152848116604483015260006064830152608482018490527f000000000000000000000000000000000000000000000000000000000000000016906397da6d309060a40160408051808303816000875af1158015612b8b573d6000803e3d6000fd5b505050506040513d601f19601f82011682018060405250810190612baf9190613f89565b50505b5050505050565b612bc4848484612685565b612bd08484848461334f565b611c55576040517f08c379a000000000000000000000000000000000000000000000000000000000815260206004820152603260248201527f4552433732313a207472616e7366657220746f206e6f6e20455243373231526560448201527f63656976657220696d706c656d656e74657200000000000000000000000000006064820152608401610acb565b60007f000000000000000000000000000000000000000000000000000000000000000073ffffffffffffffffffffffffffffffffffffffff168673ffffffffffffffffffffffffffffffffffffffff16148015612cb95750824710155b15612d9a576040517f02b9446c00000000000000000000000000000000000000000000000000000000815260006004820181905273ffffffffffffffffffffffffffffffffffffffff878116602484015286811660448401526064830186905260848301919091527f000000000000000000000000000000000000000000000000000000000000000016906302b9446c90859060a401604080518083038185885af1158015612d6c573d6000803e3d6000fd5b50505050506040513d601f19601f82011682018060405250810190612d919190613f89565b9150612ff39050565b8115612f20576040517fda5139ca00000000000000000000000000000000000000000000000000000000815273ffffffffffffffffffffffffffffffffffffffff878116600483015260248201859052600060448301527f0000000000000000000000000000000000000000000000000000000000000000169063da5139ca90606401602060405180830381865afa158015612e3a573d6000803e3d6000fd5b505050506040513d601f19601f82011682018060405250810190612e5e9190613fad565b6040517ff18d03cc00000000000000000000000000000000000000000000000000000000815273ffffffffffffffffffffffffffffffffffffffff888116600483015287811660248301528681166044830152606482018390529192507f00000000000000000000000000000000000000000000000000000000000000009091169063f18d03cc90608401600060405180830381600087803b158015612f0357600080fd5b505af1158015612f17573d6000803e3d6000fd5b50505050612ff3565b6040517f02b9446c00000000000000000000000000000000000000000000000000000000815273ffffffffffffffffffffffffffffffffffffffff87811660048301528681166024830152858116604483015260648201859052600060848301527f000000000000000000000000000000000000000000000000000000000000000016906302b9446c9060a40160408051808303816000875af1158015612fcb573d6000803e3d6000fd5b505050506040513d601f19601f82011682018060405250810190612fef9190613f89565b9150505b95945050505050565b73ffffffffffffffffffffffffffffffffffffffff8216613079576040517f08c379a000000000000000000000000000000000000000000000000000000000815260206004820181905260248201527f4552433732313a206d696e7420746f20746865207a65726f20616464726573736044820152606401610acb565b60008181526002602052604090205473ffffffffffffffffffffffffffffffffffffffff1615613105576040517f08c379a000000000000000000000000000000000000000000000000000000000815260206004820152601c60248201527f4552433732313a20746f6b656e20616c7265616479206d696e746564000000006044820152606401610acb565b73ffffffffffffffffffffffffffffffffffffffff8216600090815260036020526040812080546001929061313b908490613e9f565b909155505060008181526002602052604080822080547fffffffffffffffffffffffff00000000000000000000000000000000000000001673ffffffffffffffffffffffffffffffffffffffff861690811790915590518392907fddf252ad1be2c89b69c2b068fc378daa952ba7f163c4a11628f55a4df523b3ef908290a45050565b6060816131fe57505060408051808201909152600181527f3000000000000000000000000000000000000000000000000000000000000000602082015290565b8160005b8115613228578061321281613d5b565b91506132219050600a83613f75565b9150613202565b60008167ffffffffffffffff8111156132435761324361394e565b6040519080825280601f01601f19166020018201604052801561326d576020820181803683370190505b5090505b841561267d57613282600183613e88565b915061328f600a86613fc6565b61329a906030613e9f565b60f81b8183815181106132af576132af613dba565b60200101907effffffffffffffffffffffffffffffffffffffffffffffffffffffffffffff1916908160001a9053506132e9600a86613f75565b9450613271565b606060448251101561333557505060408051808201909152601d81527f5472616e73616374696f6e2072657665727465642073696c656e746c79000000602082015290565b600482019150818060200190518101906109b69190613fda565b600073ffffffffffffffffffffffffffffffffffffffff84163b15613534576040517f150b7a0200000000000000000000000000000000000000000000000000000000815273ffffffffffffffffffffffffffffffffffffffff85169063150b7a02906133c6903390899088908890600401614048565b6020604051808303816000875af192505050801561341f575060408051601f3d9081017fffffffffffffffffffffffffffffffffffffffffffffffffffffffffffffffe016820190925261341c91810190614091565b60015b6134e9573d80801561344d576040519150601f19603f3d011682016040523d82523d6000602084013e613452565b606091505b5080516134e1576040517f08c379a000000000000000000000000000000000000000000000000000000000815260206004820152603260248201527f4552433732313a207472616e7366657220746f206e6f6e20455243373231526560448201527f63656976657220696d706c656d656e74657200000000000000000000000000006064820152608401610acb565b805181602001fd5b7fffffffff00000000000000000000000000000000000000000000000000000000167f150b7a020000000000000000000000000000000000000000000000000000000014905061267d565b506001949350505050565b7fffffffff000000000000000000000000000000000000000000000000000000008116811461356d57600080fd5b50565b60006020828403121561358257600080fd5b81356121018161353f565b60005b838110156135a8578181015183820152602001613590565b83811115611c555750506000910152565b600081518084526135d181602086016020860161358d565b601f017fffffffffffffffffffffffffffffffffffffffffffffffffffffffffffffffe0169290920160200192915050565b60208152600061210160208301846135b9565b73ffffffffffffffffffffffffffffffffffffffff8116811461356d57600080fd5b8035801515811461364857600080fd5b919050565b60008060006060848603121561366257600080fd5b833561366d81613616565b925061367b60208501613638565b915061368960408501613638565b90509250925092565b6000602082840312156136a457600080fd5b5035919050565b600080604083850312156136be57600080fd5b82356136c981613616565b946020939093013593505050565b6000806000606084860312156136ec57600080fd5b83356136f781613616565b9250602084013561370781613616565b929592945050506040919091013590565b6000806040838503121561372b57600080fd5b82359150602083013561373d81613616565b809150509250929050565b803560ff8116811461364857600080fd5b600080600080600060a0868803121561377157600080fd5b853561377c81613616565b945061378a60208701613638565b935061379860408701613748565b94979396509394606081013594506080013592915050565b60008060008060008060a087890312156137c957600080fd5b863595506020870135945060408701356137e281613616565b93506137f060608801613638565b9250608087013567ffffffffffffffff8082111561380d57600080fd5b818901915089601f83011261382157600080fd5b81358181111561383057600080fd5b8a602082850101111561384257600080fd5b6020830194508093505050509295509295509295565b6000806040838503121561386b57600080fd5b8235915061387b60208401613638565b90509250929050565b60006020828403121561389657600080fd5b813561210181613616565b600080600080600080600080610100898b0312156138be57600080fd5b88356138c981613616565b975060208901356138d981613616565b965060408901356138e981613616565b9550606089013594506080890135935061390560a08a01613748565b925060c0890135915060e089013590509295985092959890939650565b6000806040838503121561393557600080fd5b823561394081613616565b915061387b60208401613638565b7f4e487b7100000000000000000000000000000000000000000000000000000000600052604160045260246000fd5b604051601f82017fffffffffffffffffffffffffffffffffffffffffffffffffffffffffffffffe016810167ffffffffffffffff811182821017156139c4576139c461394e565b604052919050565b600067ffffffffffffffff8211156139e6576139e661394e565b50601f017fffffffffffffffffffffffffffffffffffffffffffffffffffffffffffffffe01660200190565b60008060008060808587031215613a2857600080fd5b8435613a3381613616565b93506020850135613a4381613616565b925060408501359150606085013567ffffffffffffffff811115613a6657600080fd5b8501601f81018713613a7757600080fd5b8035613a8a613a85826139cc565b61397d565b818152886020838501011115613a9f57600080fd5b8160208401602083013760006020838301015280935050505092959194509250565b803567ffffffffffffffff8116811461364857600080fd5b60008060008060008060c08789031215613af257600080fd5b8635613afd81613616565b95506020870135613b0d81613616565b9450613b1b60408801613ac1565b9350613b2960608801613ac1565b925060808701359150613b3e60a08801613638565b90509295509295509295565b600080600060408486031215613b5f57600080fd5b833567ffffffffffffffff80821115613b7757600080fd5b818601915086601f830112613b8b57600080fd5b813581811115613b9a57600080fd5b8760208260051b8501011115613baf57600080fd5b6020928301955093506136899186019050613638565b60008060408385031215613bd857600080fd5b8235613be381613616565b9150602083013561373d81613616565b60008060008060808587031215613c0957600080fd5b8435935060208501356fffffffffffffffffffffffffffffffff81168114613c3057600080fd5b9250613c3e60408601613ac1565b9150613c4c60608601613638565b905092959194509250565b600181811c90821680613c6b57607f821691505b60208210811415613ca5577f4e487b7100000000000000000000000000000000000000000000000000000000600052602260045260246000fd5b50919050565b7f4e487b7100000000000000000000000000000000000000000000000000000000600052601160045260246000fd5b60006fffffffffffffffffffffffffffffffff808316818516808303821115613d0557613d05613cab565b01949350505050565b60208152816020820152818360408301376000818301604090810191909152601f9092017fffffffffffffffffffffffffffffffffffffffffffffffffffffffffffffffe0160101919050565b60007fffffffffffffffffffffffffffffffffffffffffffffffffffffffffffffffff821415613d8d57613d8d613cab565b5060010190565b60008351613da681846020880161358d565b835190830190613d0581836020880161358d565b7f4e487b7100000000000000000000000000000000000000000000000000000000600052603260045260246000fd5b60008083357fffffffffffffffffffffffffffffffffffffffffffffffffffffffffffffffe1843603018112613e1e57600080fd5b83018035915067ffffffffffffffff821115613e3957600080fd5b602001915036819003821315613e4e57600080fd5b9250929050565b8183823760009101908152919050565b600067ffffffffffffffff808316818516808303821115613d0557613d05613cab565b600082821015613e9a57613e9a613cab565b500390565b60008219821115613eb257613eb2613cab565b500190565b60006fffffffffffffffffffffffffffffffff83811690831681811015613ee057613ee0613cab565b039392505050565b600067ffffffffffffffff83811690831681811015613ee057613ee0613cab565b6000817fffffffffffffffffffffffffffffffffffffffffffffffffffffffffffffffff0483118215151615613f4157613f41613cab565b500290565b7f4e487b7100000000000000000000000000000000000000000000000000000000600052601260045260246000fd5b600082613f8457613f84613f46565b500490565b60008060408385031215613f9c57600080fd5b505080516020909101519092909150565b600060208284031215613fbf57600080fd5b5051919050565b600082613fd557613fd5613f46565b500690565b600060208284031215613fec57600080fd5b815167ffffffffffffffff81111561400357600080fd5b8201601f8101841361401457600080fd5b8051614022613a85826139cc565b81815285602083850101111561403757600080fd5b612ff382602083016020860161358d565b600073ffffffffffffffffffffffffffffffffffffffff80871683528086166020840152508360408301526080606083015261408760808301846135b9565b9695505050505050565b6000602082840312156140a357600080fd5b81516121018161353f56fea2646970667358221220ce55e6e1bb3d617689793f359f06b4de058d727a3e6922f8d4e6b452fa57a8a664736f6c634300080a0033",
  "linkReferences": {},
  "deployedLinkReferences": {}
}