{
  "_format": "hh-sol-artifact-1",
  "contractName": "FuroStream",
  "sourceName": "contracts/base/FuroStream.sol",
  "abi": [
    {
      "inputs": [
        {
          "internalType": "contract IBentoBoxMinimal",
          "name": "_bentoBox",
          "type": "address"
        },
        {
          "internalType": "address",
          "name": "_wETH",
          "type": "address"
        }
      ],
      "stateMutability": "nonpayable",
      "type": "constructor"
    },
    {
      "inputs": [],
      "name": "InvalidEndTime",
      "type": "error"
    },
    {
      "inputs": [],
      "name": "InvalidStartTime",
      "type": "error"
    },
    {
      "inputs": [],
      "name": "InvalidWithdrawTooMuch",
      "type": "error"
    },
    {
      "inputs": [],
      "name": "NotRecipient",
      "type": "error"
    },
    {
      "inputs": [],
      "name": "NotSender",
      "type": "error"
    },
    {
      "inputs": [],
      "name": "NotSenderOrRecipient",
      "type": "error"
    },
    {
      "anonymous": false,
      "inputs": [
        {
          "indexed": true,
          "internalType": "address",
          "name": "owner",
          "type": "address"
        },
        {
          "indexed": true,
          "internalType": "address",
          "name": "approved",
          "type": "address"
        },
        {
          "indexed": true,
          "internalType": "uint256",
          "name": "tokenId",
          "type": "uint256"
        }
      ],
      "name": "Approval",
      "type": "event"
    },
    {
      "anonymous": false,
      "inputs": [
        {
          "indexed": true,
          "internalType": "address",
          "name": "owner",
          "type": "address"
        },
        {
          "indexed": true,
          "internalType": "address",
          "name": "operator",
          "type": "address"
        },
        {
          "indexed": false,
          "internalType": "bool",
          "name": "approved",
          "type": "bool"
        }
      ],
      "name": "ApprovalForAll",
      "type": "event"
    },
    {
      "anonymous": false,
      "inputs": [
        {
          "indexed": true,
          "internalType": "uint256",
          "name": "streamId",
          "type": "uint256"
        },
        {
          "indexed": true,
          "internalType": "uint256",
          "name": "senderBalance",
          "type": "uint256"
        },
        {
          "indexed": true,
          "internalType": "uint256",
          "name": "recipientBalance",
          "type": "uint256"
        },
        {
          "indexed": false,
          "internalType": "address",
          "name": "token",
          "type": "address"
        },
        {
          "indexed": false,
          "internalType": "bool",
          "name": "toBentoBox",
          "type": "bool"
        }
      ],
      "name": "CancelStream",
      "type": "event"
    },
    {
      "anonymous": false,
      "inputs": [
        {
          "indexed": true,
          "internalType": "uint256",
          "name": "streamId",
          "type": "uint256"
        },
        {
          "indexed": true,
          "internalType": "address",
          "name": "sender",
          "type": "address"
        },
        {
          "indexed": true,
          "internalType": "address",
          "name": "recipient",
          "type": "address"
        },
        {
          "indexed": false,
          "internalType": "address",
          "name": "token",
          "type": "address"
        },
        {
          "indexed": false,
          "internalType": "uint256",
          "name": "amount",
          "type": "uint256"
        },
        {
          "indexed": false,
          "internalType": "uint256",
          "name": "startTime",
          "type": "uint256"
        },
        {
          "indexed": false,
          "internalType": "uint256",
          "name": "endTime",
          "type": "uint256"
        },
        {
          "indexed": false,
          "internalType": "bool",
          "name": "fromBentoBox",
          "type": "bool"
        }
      ],
      "name": "CreateStream",
      "type": "event"
    },
    {
      "anonymous": false,
      "inputs": [
        {
          "indexed": true,
          "internalType": "address",
          "name": "previousOwner",
          "type": "address"
        },
        {
          "indexed": true,
          "internalType": "address",
          "name": "newOwner",
          "type": "address"
        }
      ],
      "name": "OwnershipTransferred",
      "type": "event"
    },
    {
      "anonymous": false,
      "inputs": [
        {
          "indexed": true,
          "internalType": "address",
          "name": "from",
          "type": "address"
        },
        {
          "indexed": true,
          "internalType": "address",
          "name": "to",
          "type": "address"
        },
        {
          "indexed": true,
          "internalType": "uint256",
          "name": "tokenId",
          "type": "uint256"
        }
      ],
      "name": "Transfer",
      "type": "event"
    },
    {
      "anonymous": false,
      "inputs": [
        {
          "indexed": true,
          "internalType": "uint256",
          "name": "streamId",
          "type": "uint256"
        },
        {
          "indexed": true,
          "internalType": "uint128",
          "name": "topUpAmount",
          "type": "uint128"
        },
        {
          "indexed": true,
          "internalType": "uint64",
          "name": "extendTime",
          "type": "uint64"
        },
        {
          "indexed": false,
          "internalType": "bool",
          "name": "fromBentoBox",
          "type": "bool"
        }
      ],
      "name": "UpdateStream",
      "type": "event"
    },
    {
      "anonymous": false,
      "inputs": [
        {
          "indexed": true,
          "internalType": "uint256",
          "name": "streamId",
          "type": "uint256"
        },
        {
          "indexed": true,
          "internalType": "uint256",
          "name": "sharesToWithdraw",
          "type": "uint256"
        },
        {
          "indexed": true,
          "internalType": "address",
          "name": "withdrawTo",
          "type": "address"
        },
        {
          "indexed": false,
          "internalType": "address",
          "name": "token",
          "type": "address"
        },
        {
          "indexed": false,
          "internalType": "bool",
          "name": "toBentoBox",
          "type": "bool"
        }
      ],
      "name": "Withdraw",
      "type": "event"
    },
    {
      "inputs": [
        {
          "internalType": "address",
          "name": "to",
          "type": "address"
        },
        {
          "internalType": "uint256",
          "name": "tokenId",
          "type": "uint256"
        }
      ],
      "name": "approve",
      "outputs": [],
      "stateMutability": "nonpayable",
      "type": "function"
    },
    {
      "inputs": [
        {
          "internalType": "address",
          "name": "owner",
          "type": "address"
        }
      ],
      "name": "balanceOf",
      "outputs": [
        {
          "internalType": "uint256",
          "name": "",
          "type": "uint256"
        }
      ],
      "stateMutability": "view",
      "type": "function"
    },
    {
      "inputs": [
        {
          "internalType": "bytes[]",
          "name": "calls",
          "type": "bytes[]"
        },
        {
          "internalType": "bool",
          "name": "revertOnFail",
          "type": "bool"
        }
      ],
      "name": "batch",
      "outputs": [],
      "stateMutability": "payable",
      "type": "function"
    },
    {
      "inputs": [],
      "name": "bentoBox",
      "outputs": [
        {
          "internalType": "contract IBentoBoxMinimal",
          "name": "",
          "type": "address"
        }
      ],
      "stateMutability": "view",
      "type": "function"
    },
    {
      "inputs": [
        {
          "internalType": "uint256",
          "name": "streamId",
          "type": "uint256"
        },
        {
          "internalType": "bool",
          "name": "toBentoBox",
          "type": "bool"
        }
      ],
      "name": "cancelStream",
      "outputs": [
        {
          "internalType": "uint256",
          "name": "senderBalance",
          "type": "uint256"
        },
        {
          "internalType": "uint256",
          "name": "recipientBalance",
          "type": "uint256"
        }
      ],
      "stateMutability": "nonpayable",
      "type": "function"
    },
    {
      "inputs": [],
      "name": "claimOwnership",
      "outputs": [],
      "stateMutability": "nonpayable",
      "type": "function"
    },
    {
      "inputs": [
        {
          "internalType": "address",
          "name": "recipient",
          "type": "address"
        },
        {
          "internalType": "address",
          "name": "token",
          "type": "address"
        },
        {
          "internalType": "uint64",
          "name": "startTime",
          "type": "uint64"
        },
        {
          "internalType": "uint64",
          "name": "endTime",
          "type": "uint64"
        },
        {
          "internalType": "uint256",
          "name": "amount",
          "type": "uint256"
        },
        {
          "internalType": "bool",
          "name": "fromBentoBox",
          "type": "bool"
        }
      ],
      "name": "createStream",
      "outputs": [
        {
          "internalType": "uint256",
          "name": "streamId",
          "type": "uint256"
        },
        {
          "internalType": "uint256",
          "name": "depositedShares",
          "type": "uint256"
        }
      ],
      "stateMutability": "payable",
      "type": "function"
    },
    {
      "inputs": [
        {
          "internalType": "uint256",
          "name": "tokenId",
          "type": "uint256"
        }
      ],
      "name": "getApproved",
      "outputs": [
        {
          "internalType": "address",
          "name": "",
          "type": "address"
        }
      ],
      "stateMutability": "view",
      "type": "function"
    },
    {
      "inputs": [
        {
          "internalType": "uint256",
          "name": "streamId",
          "type": "uint256"
        }
      ],
      "name": "getStream",
      "outputs": [
        {
          "components": [
            {
              "internalType": "address",
              "name": "sender",
              "type": "address"
            },
            {
              "internalType": "address",
              "name": "token",
              "type": "address"
            },
            {
              "internalType": "uint128",
              "name": "depositedShares",
              "type": "uint128"
            },
            {
              "internalType": "uint128",
              "name": "withdrawnShares",
              "type": "uint128"
            },
            {
              "internalType": "uint64",
              "name": "startTime",
              "type": "uint64"
            },
            {
              "internalType": "uint64",
              "name": "endTime",
              "type": "uint64"
            }
          ],
          "internalType": "struct IFuroStream.Stream",
          "name": "",
          "type": "tuple"
        }
      ],
      "stateMutability": "view",
      "type": "function"
    },
    {
      "inputs": [
        {
          "internalType": "address",
          "name": "owner",
          "type": "address"
        },
        {
          "internalType": "address",
          "name": "operator",
          "type": "address"
        }
      ],
      "name": "isApprovedForAll",
      "outputs": [
        {
          "internalType": "bool",
          "name": "",
          "type": "bool"
        }
      ],
      "stateMutability": "view",
      "type": "function"
    },
    {
      "inputs": [],
      "name": "name",
      "outputs": [
        {
          "internalType": "string",
          "name": "",
          "type": "string"
        }
      ],
      "stateMutability": "view",
      "type": "function"
    },
    {
      "inputs": [],
      "name": "owner",
      "outputs": [
        {
          "internalType": "address",
          "name": "",
          "type": "address"
        }
      ],
      "stateMutability": "view",
      "type": "function"
    },
    {
      "inputs": [
        {
          "internalType": "uint256",
          "name": "tokenId",
          "type": "uint256"
        }
      ],
      "name": "ownerOf",
      "outputs": [
        {
          "internalType": "address",
          "name": "",
          "type": "address"
        }
      ],
      "stateMutability": "view",
      "type": "function"
    },
    {
      "inputs": [],
      "name": "pendingOwner",
      "outputs": [
        {
          "internalType": "address",
          "name": "",
          "type": "address"
        }
      ],
      "stateMutability": "view",
      "type": "function"
    },
    {
      "inputs": [
        {
          "internalType": "contract IERC20",
          "name": "token",
          "type": "address"
        },
        {
          "internalType": "address",
          "name": "from",
          "type": "address"
        },
        {
          "internalType": "address",
          "name": "to",
          "type": "address"
        },
        {
          "internalType": "uint256",
          "name": "amount",
          "type": "uint256"
        },
        {
          "internalType": "uint256",
          "name": "deadline",
          "type": "uint256"
        },
        {
          "internalType": "uint8",
          "name": "v",
          "type": "uint8"
        },
        {
          "internalType": "bytes32",
          "name": "r",
          "type": "bytes32"
        },
        {
          "internalType": "bytes32",
          "name": "s",
          "type": "bytes32"
        }
      ],
      "name": "permitToken",
      "outputs": [],
      "stateMutability": "nonpayable",
      "type": "function"
    },
    {
      "inputs": [
        {
          "internalType": "address",
          "name": "from",
          "type": "address"
        },
        {
          "internalType": "address",
          "name": "to",
          "type": "address"
        },
        {
          "internalType": "uint256",
          "name": "tokenId",
          "type": "uint256"
        }
      ],
      "name": "safeTransferFrom",
      "outputs": [],
      "stateMutability": "nonpayable",
      "type": "function"
    },
    {
      "inputs": [
        {
          "internalType": "address",
          "name": "from",
          "type": "address"
        },
        {
          "internalType": "address",
          "name": "to",
          "type": "address"
        },
        {
          "internalType": "uint256",
          "name": "tokenId",
          "type": "uint256"
        },
        {
          "internalType": "bytes",
          "name": "_data",
          "type": "bytes"
        }
      ],
      "name": "safeTransferFrom",
      "outputs": [],
      "stateMutability": "nonpayable",
      "type": "function"
    },
    {
      "inputs": [
        {
          "internalType": "address",
          "name": "operator",
          "type": "address"
        },
        {
          "internalType": "bool",
          "name": "approved",
          "type": "bool"
        }
      ],
      "name": "setApprovalForAll",
      "outputs": [],
      "stateMutability": "nonpayable",
      "type": "function"
    },
    {
      "inputs": [
        {
          "internalType": "address",
          "name": "user",
          "type": "address"
        },
        {
          "internalType": "bool",
          "name": "approved",
          "type": "bool"
        },
        {
          "internalType": "uint8",
          "name": "v",
          "type": "uint8"
        },
        {
          "internalType": "bytes32",
          "name": "r",
          "type": "bytes32"
        },
        {
          "internalType": "bytes32",
          "name": "s",
          "type": "bytes32"
        }
      ],
      "name": "setBentoBoxApproval",
      "outputs": [],
      "stateMutability": "nonpayable",
      "type": "function"
    },
    {
      "inputs": [
        {
          "internalType": "uint256",
          "name": "streamId",
          "type": "uint256"
        }
      ],
      "name": "streamBalanceOf",
      "outputs": [
        {
          "internalType": "uint256",
          "name": "senderBalance",
          "type": "uint256"
        },
        {
          "internalType": "uint256",
          "name": "recipientBalance",
          "type": "uint256"
        }
      ],
      "stateMutability": "view",
      "type": "function"
    },
    {
      "inputs": [],
      "name": "streamIds",
      "outputs": [
        {
          "internalType": "uint256",
          "name": "",
          "type": "uint256"
        }
      ],
      "stateMutability": "view",
      "type": "function"
    },
    {
      "inputs": [
        {
          "internalType": "uint256",
          "name": "",
          "type": "uint256"
        }
      ],
      "name": "streams",
      "outputs": [
        {
          "internalType": "address",
          "name": "sender",
          "type": "address"
        },
        {
          "internalType": "address",
          "name": "token",
          "type": "address"
        },
        {
          "internalType": "uint128",
          "name": "depositedShares",
          "type": "uint128"
        },
        {
          "internalType": "uint128",
          "name": "withdrawnShares",
          "type": "uint128"
        },
        {
          "internalType": "uint64",
          "name": "startTime",
          "type": "uint64"
        },
        {
          "internalType": "uint64",
          "name": "endTime",
          "type": "uint64"
        }
      ],
      "stateMutability": "view",
      "type": "function"
    },
    {
      "inputs": [
        {
          "internalType": "bytes4",
          "name": "interfaceId",
          "type": "bytes4"
        }
      ],
      "name": "supportsInterface",
      "outputs": [
        {
          "internalType": "bool",
          "name": "",
          "type": "bool"
        }
      ],
      "stateMutability": "view",
      "type": "function"
    },
    {
      "inputs": [],
      "name": "symbol",
      "outputs": [
        {
          "internalType": "string",
          "name": "",
          "type": "string"
        }
      ],
      "stateMutability": "view",
      "type": "function"
    },
    {
      "inputs": [
        {
          "internalType": "uint256",
          "name": "tokenId",
          "type": "uint256"
        }
      ],
      "name": "tokenURI",
      "outputs": [
        {
          "internalType": "string",
          "name": "",
          "type": "string"
        }
      ],
      "stateMutability": "view",
      "type": "function"
    },
    {
      "inputs": [
        {
          "internalType": "address",
          "name": "from",
          "type": "address"
        },
        {
          "internalType": "address",
          "name": "to",
          "type": "address"
        },
        {
          "internalType": "uint256",
          "name": "tokenId",
          "type": "uint256"
        }
      ],
      "name": "transferFrom",
      "outputs": [],
      "stateMutability": "nonpayable",
      "type": "function"
    },
    {
      "inputs": [
        {
          "internalType": "address",
          "name": "newOwner",
          "type": "address"
        },
        {
          "internalType": "bool",
          "name": "direct",
          "type": "bool"
        },
        {
          "internalType": "bool",
          "name": "renounce",
          "type": "bool"
        }
      ],
      "name": "transferOwnership",
      "outputs": [],
      "stateMutability": "nonpayable",
      "type": "function"
    },
    {
      "inputs": [
        {
          "internalType": "uint256",
          "name": "streamId",
          "type": "uint256"
        },
        {
          "internalType": "address",
          "name": "sender",
          "type": "address"
        }
      ],
      "name": "updateSender",
      "outputs": [],
      "stateMutability": "nonpayable",
      "type": "function"
    },
    {
      "inputs": [
        {
          "internalType": "uint256",
          "name": "streamId",
          "type": "uint256"
        },
        {
          "internalType": "uint128",
          "name": "topUpAmount",
          "type": "uint128"
        },
        {
          "internalType": "uint64",
          "name": "extendTime",
          "type": "uint64"
        },
        {
          "internalType": "bool",
          "name": "fromBentoBox",
          "type": "bool"
        }
      ],
      "name": "updateStream",
      "outputs": [
        {
          "internalType": "uint256",
          "name": "depositedShares",
          "type": "uint256"
        }
      ],
      "stateMutability": "nonpayable",
      "type": "function"
    },
    {
      "inputs": [],
      "name": "wETH",
      "outputs": [
        {
          "internalType": "address",
          "name": "",
          "type": "address"
        }
      ],
      "stateMutability": "view",
      "type": "function"
    },
    {
      "inputs": [
        {
          "internalType": "uint256",
          "name": "streamId",
          "type": "uint256"
        },
        {
          "internalType": "uint256",
          "name": "sharesToWithdraw",
          "type": "uint256"
        },
        {
          "internalType": "address",
          "name": "withdrawTo",
          "type": "address"
        },
        {
          "internalType": "bool",
          "name": "toBentoBox",
          "type": "bool"
        },
        {
          "internalType": "bytes",
          "name": "taskData",
          "type": "bytes"
        }
      ],
      "name": "withdrawFromStream",
      "outputs": [
        {
          "internalType": "uint256",
          "name": "recipientBalance",
          "type": "uint256"
        },
        {
          "internalType": "address",
          "name": "to",
          "type": "address"
        }
      ],
      "stateMutability": "nonpayable",
      "type": "function"
    }
  ],
  "bytecode": "0x60c06040523480156200001157600080fd5b506040516200442a3803806200442a833981016040819052620000349162000212565b604080518082018252600b81526a4675726f2053747265616d60a81b6020808301918252835180850190945260048452634655524f60e01b908401528151919291620000839160009162000153565b5080516200009990600190602084019062000153565b5050600680546001600160a01b031916339081179091556040519091506000907f8be0079c531659141344cd1fd0a4f28419497f9722a3daafe3b4186f6b6457e0908290a36001600160a01b03808316608081905290821660a0526103e86008556040805163577268d960e11b8152905163aee4d1b29160048082019260009290919082900301818387803b1580156200013257600080fd5b505af115801562000147573d6000803e3d6000fd5b5050505050506200028e565b828054620001619062000251565b90600052602060002090601f016020900481019282620001855760008555620001d0565b82601f10620001a057805160ff1916838001178555620001d0565b82800160010185558215620001d0579182015b82811115620001d0578251825591602001919060010190620001b3565b50620001de929150620001e2565b5090565b5b80821115620001de5760008155600101620001e3565b6001600160a01b03811681146200020f57600080fd5b50565b600080604083850312156200022657600080fd5b82516200023381620001f9565b60208401519092506200024681620001f9565b809150509250929050565b600181811c908216806200026657607f821691505b602082108114156200028857634e487b7160e01b600052602260045260246000fd5b50919050565b60805160a05161413e620002ec600039600081816108950152612cba01526000818161052a0152818161112501528181612ad901528181612b9d01528181612d7d01528181612e4d01528181612f170152612fdd015261413e6000f3fe6080604052600436106101d85760003560e01c80636b2ace8711610102578063b88d4fde11610095578063e30c397811610064578063e30c397814610800578063e985e9c51461082d578063f242862114610883578063f8c7e588146108b757600080fd5b8063b88d4fde1461079a578063c14cf8f0146107ba578063c87b56dd146107cd578063d2423b51146107ed57600080fd5b80638da5cb5b116100d15780638da5cb5b1461072257806395d89b411461074f5780639fd2640e14610764578063a22cb4651461077a57600080fd5b80636b2ace871461051857806370a082311461054c5780637c516e941461057a578063894e9a0d1461059a57600080fd5b80632b9134531161017a5780634e71e0c8116101495780634e71e0c8146103ba57806359f71c1a146103cf5780636352211e146103ef57806364d60d911461040f57600080fd5b80632b9134531461031057806342842e0e14610330578063489bb0b21461035057806348bae94b1461037057600080fd5b8063081812fc116101b6578063081812fc14610256578063095ea7b31461029b57806323b872dd146102bb57806325958d8f146102db57600080fd5b806301ffc9a7146101dd57806306fdde0314610212578063078dfbe714610234575b600080fd5b3480156101e957600080fd5b506101fd6101f83660046135ca565b6108d7565b60405190151581526020015b60405180910390f35b34801561021e57600080fd5b506102276109bc565b604051610209919061365d565b34801561024057600080fd5b5061025461024f3660046136a7565b610a4e565b005b34801561026257600080fd5b506102766102713660046136ec565b610c3f565b60405173ffffffffffffffffffffffffffffffffffffffff9091168152602001610209565b3480156102a757600080fd5b506102546102b6366004613705565b610d19565b3480156102c757600080fd5b506102546102d6366004613731565b610ea1565b3480156102e757600080fd5b506102fb6102f63660046136ec565b610f42565b60408051928352602083019190915201610209565b34801561031c57600080fd5b5061025461032b366004613772565b610ffc565b34801561033c57600080fd5b5061025461034b366004613731565b6110a0565b34801561035c57600080fd5b5061025461036b3660046137b3565b6110bb565b34801561037c57600080fd5b5061039061038b36600461380a565b611188565b6040805192835273ffffffffffffffffffffffffffffffffffffffff909116602083015201610209565b3480156103c657600080fd5b506102546114ee565b3480156103db57600080fd5b506102fb6103ea3660046138b2565b611605565b3480156103fb57600080fd5b5061027661040a3660046136ec565b611855565b34801561041b57600080fd5b506104b061042a3660046136ec565b600960205260009081526040902080546001820154600283015460039093015473ffffffffffffffffffffffffffffffffffffffff9283169391909216916fffffffffffffffffffffffffffffffff808316927001000000000000000000000000000000009004169067ffffffffffffffff808216916801000000000000000090041686565b6040805173ffffffffffffffffffffffffffffffffffffffff97881681529690951660208701526fffffffffffffffffffffffffffffffff938416948601949094529116606084015267ffffffffffffffff90811660808401521660a082015260c001610209565b34801561052457600080fd5b506102767f000000000000000000000000000000000000000000000000000000000000000081565b34801561055857600080fd5b5061056c6105673660046138de565b611907565b604051908152602001610209565b34801561058657600080fd5b506102546105953660046138fb565b6119d5565b3480156105a657600080fd5b506106946105b53660046136ec565b6040805160c081018252600080825260208201819052918101829052606081018290526080810182905260a081019190915250600090815260096020908152604091829020825160c081018452815473ffffffffffffffffffffffffffffffffffffffff90811682526001830154169281019290925260028101546fffffffffffffffffffffffffffffffff808216948401949094527001000000000000000000000000000000009004909216606082015260039091015467ffffffffffffffff8082166080840152680100000000000000009091041660a082015290565b6040516102099190600060c08201905073ffffffffffffffffffffffffffffffffffffffff8084511683528060208501511660208401525060408301516fffffffffffffffffffffffffffffffff80821660408501528060608601511660608501525050608083015167ffffffffffffffff80821660808501528060a08601511660a0850152505092915050565b34801561072e57600080fd5b506006546102769073ffffffffffffffffffffffffffffffffffffffff1681565b34801561075b57600080fd5b50610227611a8d565b34801561077057600080fd5b5061056c60085481565b34801561078657600080fd5b5061025461079536600461397c565b611a9c565b3480156107a657600080fd5b506102546107b5366004613a6c565b611bb3565b6102fb6107c8366004613b33565b611c5b565b3480156107d957600080fd5b506102276107e83660046136ec565b611feb565b6102546107fb366004613ba4565b612108565b34801561080c57600080fd5b506007546102769073ffffffffffffffffffffffffffffffffffffffff1681565b34801561083957600080fd5b506101fd610848366004613c1f565b73ffffffffffffffffffffffffffffffffffffffff918216600090815260056020908152604080832093909416825291909152205460ff1690565b34801561088f57600080fd5b506102767f000000000000000000000000000000000000000000000000000000000000000081565b3480156108c357600080fd5b5061056c6108d2366004613c4d565b6121ef565b60007fffffffff0000000000000000000000000000000000000000000000000000000082167f80ac58cd00000000000000000000000000000000000000000000000000000000148061096a57507fffffffff0000000000000000000000000000000000000000000000000000000082167f5b5e139f00000000000000000000000000000000000000000000000000000000145b806109b657507f01ffc9a7000000000000000000000000000000000000000000000000000000007fffffffff000000000000000000000000000000000000000000000000000000008316145b92915050565b6060600080546109cb90613cb1565b80601f01602080910402602001604051908101604052809291908181526020018280546109f790613cb1565b8015610a445780601f10610a1957610100808354040283529160200191610a44565b820191906000526020600020905b815481529060010190602001808311610a2757829003601f168201915b5050505050905090565b60065473ffffffffffffffffffffffffffffffffffffffff163314610ad4576040517f08c379a000000000000000000000000000000000000000000000000000000000815260206004820181905260248201527f4f776e61626c653a2063616c6c6572206973206e6f7420746865206f776e657260448201526064015b60405180910390fd5b8115610bf95773ffffffffffffffffffffffffffffffffffffffff8316151580610afb5750805b610b61576040517f08c379a000000000000000000000000000000000000000000000000000000000815260206004820152601560248201527f4f776e61626c653a207a65726f206164647265737300000000000000000000006044820152606401610acb565b60065460405173ffffffffffffffffffffffffffffffffffffffff8086169216907f8be0079c531659141344cd1fd0a4f28419497f9722a3daafe3b4186f6b6457e090600090a36006805473ffffffffffffffffffffffffffffffffffffffff85167fffffffffffffffffffffffff000000000000000000000000000000000000000091821617909155600780549091169055505050565b600780547fffffffffffffffffffffffff00000000000000000000000000000000000000001673ffffffffffffffffffffffffffffffffffffffff85161790555b505050565b60008181526002602052604081205473ffffffffffffffffffffffffffffffffffffffff16610cf0576040517f08c379a000000000000000000000000000000000000000000000000000000000815260206004820152602c60248201527f4552433732313a20617070726f76656420717565727920666f72206e6f6e657860448201527f697374656e7420746f6b656e00000000000000000000000000000000000000006064820152608401610acb565b5060009081526004602052604090205473ffffffffffffffffffffffffffffffffffffffff1690565b6000610d2482611855565b90508073ffffffffffffffffffffffffffffffffffffffff168373ffffffffffffffffffffffffffffffffffffffff161415610de2576040517f08c379a000000000000000000000000000000000000000000000000000000000815260206004820152602160248201527f4552433732313a20617070726f76616c20746f2063757272656e74206f776e6560448201527f72000000000000000000000000000000000000000000000000000000000000006064820152608401610acb565b3373ffffffffffffffffffffffffffffffffffffffff82161480610e0b5750610e0b8133610848565b610e97576040517f08c379a000000000000000000000000000000000000000000000000000000000815260206004820152603860248201527f4552433732313a20617070726f76652063616c6c6572206973206e6f74206f7760448201527f6e6572206e6f7220617070726f76656420666f7220616c6c00000000000000006064820152608401610acb565b610c3a83836124cf565b610eab338261256f565b610f37576040517f08c379a000000000000000000000000000000000000000000000000000000000815260206004820152603160248201527f4552433732313a207472616e736665722063616c6c6572206973206e6f74206f60448201527f776e6572206e6f7220617070726f7665640000000000000000000000000000006064820152608401610acb565b610c3a8383836126df565b6000818152600960209081526040808320815160c081018352815473ffffffffffffffffffffffffffffffffffffffff90811682526001830154169381019390935260028101546fffffffffffffffffffffffffffffffff80821693850193909352700100000000000000000000000000000000900490911660608301526003015467ffffffffffffffff8082166080840152680100000000000000009091041660a08201528190610ff390612946565b91509150915091565b6000828152600960205260409020805473ffffffffffffffffffffffffffffffffffffffff16331461105a576040517fb2c3aa6b00000000000000000000000000000000000000000000000000000000815260040160405180910390fd5b80547fffffffffffffffffffffffff00000000000000000000000000000000000000001673ffffffffffffffffffffffffffffffffffffffff9290921691909117905550565b610c3a83838360405180602001604052806000815250611bb3565b6040517fc0a47c9300000000000000000000000000000000000000000000000000000000815273ffffffffffffffffffffffffffffffffffffffff8681166004830152306024830152851515604483015260ff851660648301526084820184905260a482018390527f0000000000000000000000000000000000000000000000000000000000000000169063c0a47c939060c401600060405180830381600087803b15801561116957600080fd5b505af115801561117d573d6000803e3d6000fd5b505050505050505050565b600080600061119689611855565b60008a81526009602052604090205490915073ffffffffffffffffffffffffffffffffffffffff1633148015906111e357503373ffffffffffffffffffffffffffffffffffffffff821614155b1561121a576040517fc821e7f000000000000000000000000000000000000000000000000000000000815260040160405180910390fd5b600089815260096020908152604091829020825160c081018452815473ffffffffffffffffffffffffffffffffffffffff90811682526001830154169281019290925260028101546fffffffffffffffffffffffffffffffff8082169484019490945270010000000000000000000000000000000090049092166060820152600382015467ffffffffffffffff8082166080840152680100000000000000009091041660a08201526112cb90612946565b94505088841015611308576040517f6a1f509a00000000000000000000000000000000000000000000000000000000815260040160405180910390fd5b888160020160108282829054906101000a90046fffffffffffffffffffffffffffffffff166113379190613d34565b92506101000a8154816fffffffffffffffffffffffffffffffff02191690836fffffffffffffffffffffffffffffffff1602179055508173ffffffffffffffffffffffffffffffffffffffff163373ffffffffffffffffffffffffffffffffffffffff161480156113bd575073ffffffffffffffffffffffffffffffffffffffff881615155b156113ca578792506113ce565b8192505b60018101546113f69073ffffffffffffffffffffffffffffffffffffffff1630858c8b612a77565b8415611483576040517f330df28200000000000000000000000000000000000000000000000000000000815273ffffffffffffffffffffffffffffffffffffffff84169063330df282906114509089908990600401613d68565b600060405180830381600087803b15801561146a57600080fd5b505af115801561147e573d6000803e3d6000fd5b505050505b60018101546040805173ffffffffffffffffffffffffffffffffffffffff92831681528915156020820152918a16918b918d917f8deda66e5f5ef6c43f45734b544b27efe7fe2cd80a4b7fbf5c789aa69c024818910160405180910390a45050965096945050505050565b60075473ffffffffffffffffffffffffffffffffffffffff16338114611570576040517f08c379a000000000000000000000000000000000000000000000000000000000815260206004820181905260248201527f4f776e61626c653a2063616c6c657220213d2070656e64696e67206f776e65726044820152606401610acb565b60065460405173ffffffffffffffffffffffffffffffffffffffff8084169216907f8be0079c531659141344cd1fd0a4f28419497f9722a3daafe3b4186f6b6457e090600090a36006805473ffffffffffffffffffffffffffffffffffffffff9092167fffffffffffffffffffffffff0000000000000000000000000000000000000000928316179055600780549091169055565b600080600061161385611855565b60008681526009602052604090205490915073ffffffffffffffffffffffffffffffffffffffff16331480159061166057503373ffffffffffffffffffffffffffffffffffffffff821614155b15611697576040517fc821e7f000000000000000000000000000000000000000000000000000000000815260040160405180910390fd5b600085815260096020908152604091829020825160c081018452815473ffffffffffffffffffffffffffffffffffffffff90811682526001830154169281019290925260028101546fffffffffffffffffffffffffffffffff808216948401949094527001000000000000000000000000000000009004909216606082015260039091015467ffffffffffffffff8082166080840152680100000000000000009091041660a082015261174981612946565b6000888152600960209081526040822080547fffffffffffffffffffffffff0000000000000000000000000000000000000000908116825560018201805490911690556002810192909255600390910180547fffffffffffffffffffffffffffffffff0000000000000000000000000000000016905583015191955093506117d49030848689612a77565b6117e981602001513083600001518789612a77565b8284877fb76e70514ce71ea8144278de4cb58afc6c323447436371f6fe49e145ffdc540b84602001518960405161184492919073ffffffffffffffffffffffffffffffffffffffff9290921682521515602082015260400190565b60405180910390a450509250929050565b60008181526002602052604081205473ffffffffffffffffffffffffffffffffffffffff16806109b6576040517f08c379a000000000000000000000000000000000000000000000000000000000815260206004820152602960248201527f4552433732313a206f776e657220717565727920666f72206e6f6e657869737460448201527f656e7420746f6b656e00000000000000000000000000000000000000000000006064820152608401610acb565b600073ffffffffffffffffffffffffffffffffffffffff82166119ac576040517f08c379a000000000000000000000000000000000000000000000000000000000815260206004820152602a60248201527f4552433732313a2062616c616e636520717565727920666f7220746865207a6560448201527f726f2061646472657373000000000000000000000000000000000000000000006064820152608401610acb565b5073ffffffffffffffffffffffffffffffffffffffff1660009081526003602052604090205490565b6040517fd505accf00000000000000000000000000000000000000000000000000000000815273ffffffffffffffffffffffffffffffffffffffff88811660048301528781166024830152604482018790526064820186905260ff8516608483015260a4820184905260c4820183905289169063d505accf9060e401600060405180830381600087803b158015611a6b57600080fd5b505af1158015611a7f573d6000803e3d6000fd5b505050505050505050505050565b6060600180546109cb90613cb1565b73ffffffffffffffffffffffffffffffffffffffff8216331415611b1c576040517f08c379a000000000000000000000000000000000000000000000000000000000815260206004820152601960248201527f4552433732313a20617070726f766520746f2063616c6c6572000000000000006044820152606401610acb565b33600081815260056020908152604080832073ffffffffffffffffffffffffffffffffffffffff87168085529083529281902080547fffffffffffffffffffffffffffffffffffffffffffffffffffffffffffffff001686151590811790915590519081529192917f17307eab39ab6107e8899845ad3d59bd9653f200f220920489ca2b5937696c31910160405180910390a35050565b611bbd338361256f565b611c49576040517f08c379a000000000000000000000000000000000000000000000000000000000815260206004820152603160248201527f4552433732313a207472616e736665722063616c6c6572206973206e6f74206f60448201527f776e6572206e6f7220617070726f7665640000000000000000000000000000006064820152608401610acb565b611c5584848484612c13565b50505050565b600080428667ffffffffffffffff161015611ca2576040517fb290253c00000000000000000000000000000000000000000000000000000000815260040160405180910390fd5b8567ffffffffffffffff168567ffffffffffffffff1611611cef576040517f38af65f700000000000000000000000000000000000000000000000000000000815260040160405180910390fd5b611cfc8733308787612cb6565b600880549192506000611d0e83613db5565b919050559150611d1e8883613056565b6040518060c001604052803373ffffffffffffffffffffffffffffffffffffffff1681526020018873ffffffffffffffffffffffffffffffffffffffff168152602001826fffffffffffffffffffffffffffffffff16815260200160006fffffffffffffffffffffffffffffffff1681526020018767ffffffffffffffff1681526020018667ffffffffffffffff168152506009600084815260200190815260200160002060008201518160000160006101000a81548173ffffffffffffffffffffffffffffffffffffffff021916908373ffffffffffffffffffffffffffffffffffffffff16021790555060208201518160010160006101000a81548173ffffffffffffffffffffffffffffffffffffffff021916908373ffffffffffffffffffffffffffffffffffffffff16021790555060408201518160020160006101000a8154816fffffffffffffffffffffffffffffffff02191690836fffffffffffffffffffffffffffffffff16021790555060608201518160020160106101000a8154816fffffffffffffffffffffffffffffffff02191690836fffffffffffffffffffffffffffffffff16021790555060808201518160030160006101000a81548167ffffffffffffffff021916908367ffffffffffffffff16021790555060a08201518160030160086101000a81548167ffffffffffffffff021916908367ffffffffffffffff1602179055509050508773ffffffffffffffffffffffffffffffffffffffff163373ffffffffffffffffffffffffffffffffffffffff16837f1a2d760a604c03eaa74e64c0e42f0e4f41824be534853f4c2f3ed42d36fed25c8a858b8b8a604051611fd895949392919073ffffffffffffffffffffffffffffffffffffffff959095168552602085019390935267ffffffffffffffff91821660408501521660608301521515608082015260a00190565b60405180910390a4965096945050505050565b60008181526002602052604090205460609073ffffffffffffffffffffffffffffffffffffffff1661209f576040517f08c379a000000000000000000000000000000000000000000000000000000000815260206004820152602f60248201527f4552433732314d657461646174613a2055524920717565727920666f72206e6f60448201527f6e6578697374656e7420746f6b656e00000000000000000000000000000000006064820152608401610acb565b60006120b660408051602081019091526000815290565b905060008151116120d65760405180602001604052806000815250612101565b806120e084613218565b6040516020016120f1929190613dee565b6040516020818303038152906040525b9392505050565b60005b82811015611c55576000803086868581811061212957612129613e14565b905060200281019061213b9190613e43565b604051612149929190613eaf565b600060405180830381855af49150503d8060008114612184576040519150601f19603f3d011682016040523d82523d6000602084013e612189565b606091505b5091509150811580156121995750835b156121da576121a78161334a565b6040517f08c379a0000000000000000000000000000000000000000000000000000000008152600401610acb919061365d565b505080806121e790613db5565b91505061210b565b6000848152600960205260408120805473ffffffffffffffffffffffffffffffffffffffff16331461224d576040517fb2c3aa6b00000000000000000000000000000000000000000000000000000000815260040160405180910390fd5b600061225887611855565b6040805160c081018252845473ffffffffffffffffffffffffffffffffffffffff9081168252600186015416602082015260028501546fffffffffffffffffffffffffffffffff8082169383019390935270010000000000000000000000000000000090049091166060820152600384015467ffffffffffffffff8082166080840152680100000000000000009091041660a08201529091506000906122fd90612946565b9150506123328360010160009054906101000a900473ffffffffffffffffffffffffffffffffffffffff163084846001612a77565b808360020160108282829054906101000a90046fffffffffffffffffffffffffffffffff166123619190613d34565b82546101009290920a6fffffffffffffffffffffffffffffffff818102199093169183160217909155600185015485546123bc935073ffffffffffffffffffffffffffffffffffffffff9182169291169085908b1689612cb6565b60028401805491955085916000906123e79084906fffffffffffffffffffffffffffffffff16613d34565b92506101000a8154816fffffffffffffffffffffffffffffffff02191690836fffffffffffffffffffffffffffffffff160217905550858360030160088282829054906101000a900467ffffffffffffffff166124449190613ebf565b92506101000a81548167ffffffffffffffff021916908367ffffffffffffffff1602179055508567ffffffffffffffff16876fffffffffffffffffffffffffffffffff16897f9e2386766b478abaf84b870cc94441fee88f4a0d3ab18b96e523f193a695f3a1886040516124bc911515815260200190565b60405180910390a4505050949350505050565b600081815260046020526040902080547fffffffffffffffffffffffff00000000000000000000000000000000000000001673ffffffffffffffffffffffffffffffffffffffff8416908117909155819061252982611855565b73ffffffffffffffffffffffffffffffffffffffff167f8c5be1e5ebec7d5bd14f71427d1e84f3dd0314c0f7b2291e5b200ac8c7c3b92560405160405180910390a45050565b60008181526002602052604081205473ffffffffffffffffffffffffffffffffffffffff16612620576040517f08c379a000000000000000000000000000000000000000000000000000000000815260206004820152602c60248201527f4552433732313a206f70657261746f7220717565727920666f72206e6f6e657860448201527f697374656e7420746f6b656e00000000000000000000000000000000000000006064820152608401610acb565b600061262b83611855565b90508073ffffffffffffffffffffffffffffffffffffffff168473ffffffffffffffffffffffffffffffffffffffff16148061269a57508373ffffffffffffffffffffffffffffffffffffffff1661268284610c3f565b73ffffffffffffffffffffffffffffffffffffffff16145b806126d7575073ffffffffffffffffffffffffffffffffffffffff80821660009081526005602090815260408083209388168352929052205460ff165b949350505050565b8273ffffffffffffffffffffffffffffffffffffffff166126ff82611855565b73ffffffffffffffffffffffffffffffffffffffff16146127a2576040517f08c379a000000000000000000000000000000000000000000000000000000000815260206004820152602960248201527f4552433732313a207472616e73666572206f6620746f6b656e2074686174206960448201527f73206e6f74206f776e00000000000000000000000000000000000000000000006064820152608401610acb565b73ffffffffffffffffffffffffffffffffffffffff8216612844576040517f08c379a0000000000000000000000000000000000000000000000000000000008152602060048201526024808201527f4552433732313a207472616e7366657220746f20746865207a65726f2061646460448201527f72657373000000000000000000000000000000000000000000000000000000006064820152608401610acb565b61284f6000826124cf565b73ffffffffffffffffffffffffffffffffffffffff83166000908152600360205260408120805460019290612885908490613ee2565b909155505073ffffffffffffffffffffffffffffffffffffffff821660009081526003602052604081208054600192906128c0908490613ef9565b909155505060008181526002602052604080822080547fffffffffffffffffffffffff00000000000000000000000000000000000000001673ffffffffffffffffffffffffffffffffffffffff86811691821790925591518493918716917fddf252ad1be2c89b69c2b068fc378daa952ba7f163c4a11628f55a4df523b3ef91a4505050565b600080826080015167ffffffffffffffff16421161297c575050604001516fffffffffffffffffffffffffffffffff1690600090565b428360a0015167ffffffffffffffff16116129c257826060015183604001516129a59190613f11565b6fffffffffffffffffffffffffffffffff16905060009150915091565b6000836080015167ffffffffffffffff16426129de9190613ee2565b905083606001516fffffffffffffffffffffffffffffffff1684608001518560a00151612a0b9190613f42565b67ffffffffffffffff168286604001516fffffffffffffffffffffffffffffffff16612a379190613f63565b612a419190613fcf565b612a4b9190613ee2565b91508184604001516fffffffffffffffffffffffffffffffff16612a6f9190613ee2565b925050915091565b8015612b3a576040517ff18d03cc00000000000000000000000000000000000000000000000000000000815273ffffffffffffffffffffffffffffffffffffffff868116600483015285811660248301528481166044830152606482018490527f0000000000000000000000000000000000000000000000000000000000000000169063f18d03cc90608401600060405180830381600087803b158015612b1d57600080fd5b505af1158015612b31573d6000803e3d6000fd5b50505050612c0c565b6040517f97da6d3000000000000000000000000000000000000000000000000000000000815273ffffffffffffffffffffffffffffffffffffffff86811660048301528581166024830152848116604483015260006064830152608482018490527f000000000000000000000000000000000000000000000000000000000000000016906397da6d309060a40160408051808303816000875af1158015612be5573d6000803e3d6000fd5b505050506040513d601f19601f82011682018060405250810190612c099190613fe3565b50505b5050505050565b612c1e8484846126df565b612c2a848484846133a9565b611c55576040517f08c379a000000000000000000000000000000000000000000000000000000000815260206004820152603260248201527f4552433732313a207472616e7366657220746f206e6f6e20455243373231526560448201527f63656976657220696d706c656d656e74657200000000000000000000000000006064820152608401610acb565b60007f000000000000000000000000000000000000000000000000000000000000000073ffffffffffffffffffffffffffffffffffffffff168673ffffffffffffffffffffffffffffffffffffffff16148015612d135750824710155b15612df4576040517f02b9446c00000000000000000000000000000000000000000000000000000000815260006004820181905273ffffffffffffffffffffffffffffffffffffffff878116602484015286811660448401526064830186905260848301919091527f000000000000000000000000000000000000000000000000000000000000000016906302b9446c90859060a401604080518083038185885af1158015612dc6573d6000803e3d6000fd5b50505050506040513d601f19601f82011682018060405250810190612deb9190613fe3565b915061304d9050565b8115612f7a576040517fda5139ca00000000000000000000000000000000000000000000000000000000815273ffffffffffffffffffffffffffffffffffffffff878116600483015260248201859052600060448301527f0000000000000000000000000000000000000000000000000000000000000000169063da5139ca90606401602060405180830381865afa158015612e94573d6000803e3d6000fd5b505050506040513d601f19601f82011682018060405250810190612eb89190614007565b6040517ff18d03cc00000000000000000000000000000000000000000000000000000000815273ffffffffffffffffffffffffffffffffffffffff888116600483015287811660248301528681166044830152606482018390529192507f00000000000000000000000000000000000000000000000000000000000000009091169063f18d03cc90608401600060405180830381600087803b158015612f5d57600080fd5b505af1158015612f71573d6000803e3d6000fd5b5050505061304d565b6040517f02b9446c00000000000000000000000000000000000000000000000000000000815273ffffffffffffffffffffffffffffffffffffffff87811660048301528681166024830152858116604483015260648201859052600060848301527f000000000000000000000000000000000000000000000000000000000000000016906302b9446c9060a40160408051808303816000875af1158015613025573d6000803e3d6000fd5b505050506040513d601f19601f820116820180604052508101906130499190613fe3565b9150505b95945050505050565b73ffffffffffffffffffffffffffffffffffffffff82166130d3576040517f08c379a000000000000000000000000000000000000000000000000000000000815260206004820181905260248201527f4552433732313a206d696e7420746f20746865207a65726f20616464726573736044820152606401610acb565b60008181526002602052604090205473ffffffffffffffffffffffffffffffffffffffff161561315f576040517f08c379a000000000000000000000000000000000000000000000000000000000815260206004820152601c60248201527f4552433732313a20746f6b656e20616c7265616479206d696e746564000000006044820152606401610acb565b73ffffffffffffffffffffffffffffffffffffffff82166000908152600360205260408120805460019290613195908490613ef9565b909155505060008181526002602052604080822080547fffffffffffffffffffffffff00000000000000000000000000000000000000001673ffffffffffffffffffffffffffffffffffffffff861690811790915590518392907fddf252ad1be2c89b69c2b068fc378daa952ba7f163c4a11628f55a4df523b3ef908290a45050565b60608161325857505060408051808201909152600181527f3000000000000000000000000000000000000000000000000000000000000000602082015290565b8160005b8115613282578061326c81613db5565b915061327b9050600a83613fcf565b915061325c565b60008167ffffffffffffffff81111561329d5761329d6139a8565b6040519080825280601f01601f1916602001820160405280156132c7576020820181803683370190505b5090505b84156126d7576132dc600183613ee2565b91506132e9600a86614020565b6132f4906030613ef9565b60f81b81838151811061330957613309613e14565b60200101907effffffffffffffffffffffffffffffffffffffffffffffffffffffffffffff1916908160001a905350613343600a86613fcf565b94506132cb565b606060448251101561338f57505060408051808201909152601d81527f5472616e73616374696f6e2072657665727465642073696c656e746c79000000602082015290565b600482019150818060200190518101906109b69190614034565b600073ffffffffffffffffffffffffffffffffffffffff84163b1561358e576040517f150b7a0200000000000000000000000000000000000000000000000000000000815273ffffffffffffffffffffffffffffffffffffffff85169063150b7a02906134209033908990889088906004016140a2565b6020604051808303816000875af1925050508015613479575060408051601f3d9081017fffffffffffffffffffffffffffffffffffffffffffffffffffffffffffffffe0168201909252613476918101906140eb565b60015b613543573d8080156134a7576040519150601f19603f3d011682016040523d82523d6000602084013e6134ac565b606091505b50805161353b576040517f08c379a000000000000000000000000000000000000000000000000000000000815260206004820152603260248201527f4552433732313a207472616e7366657220746f206e6f6e20455243373231526560448201527f63656976657220696d706c656d656e74657200000000000000000000000000006064820152608401610acb565b805181602001fd5b7fffffffff00000000000000000000000000000000000000000000000000000000167f150b7a02000000000000000000000000000000000000000000000000000000001490506126d7565b506001949350505050565b7fffffffff00000000000000000000000000000000000000000000000000000000811681146135c757600080fd5b50565b6000602082840312156135dc57600080fd5b813561210181613599565b60005b838110156136025781810151838201526020016135ea565b83811115611c555750506000910152565b6000815180845261362b8160208601602086016135e7565b601f017fffffffffffffffffffffffffffffffffffffffffffffffffffffffffffffffe0169290920160200192915050565b6020815260006121016020830184613613565b73ffffffffffffffffffffffffffffffffffffffff811681146135c757600080fd5b803580151581146136a257600080fd5b919050565b6000806000606084860312156136bc57600080fd5b83356136c781613670565b92506136d560208501613692565b91506136e360408501613692565b90509250925092565b6000602082840312156136fe57600080fd5b5035919050565b6000806040838503121561371857600080fd5b823561372381613670565b946020939093013593505050565b60008060006060848603121561374657600080fd5b833561375181613670565b9250602084013561376181613670565b929592945050506040919091013590565b6000806040838503121561378557600080fd5b82359150602083013561379781613670565b809150509250929050565b803560ff811681146136a257600080fd5b600080600080600060a086880312156137cb57600080fd5b85356137d681613670565b94506137e460208701613692565b93506137f2604087016137a2565b94979396509394606081013594506080013592915050565b60008060008060008060a0878903121561382357600080fd5b8635955060208701359450604087013561383c81613670565b935061384a60608801613692565b9250608087013567ffffffffffffffff8082111561386757600080fd5b818901915089601f83011261387b57600080fd5b81358181111561388a57600080fd5b8a602082850101111561389c57600080fd5b6020830194508093505050509295509295509295565b600080604083850312156138c557600080fd5b823591506138d560208401613692565b90509250929050565b6000602082840312156138f057600080fd5b813561210181613670565b600080600080600080600080610100898b03121561391857600080fd5b883561392381613670565b9750602089013561393381613670565b9650604089013561394381613670565b9550606089013594506080890135935061395f60a08a016137a2565b925060c0890135915060e089013590509295985092959890939650565b6000806040838503121561398f57600080fd5b823561399a81613670565b91506138d560208401613692565b7f4e487b7100000000000000000000000000000000000000000000000000000000600052604160045260246000fd5b604051601f82017fffffffffffffffffffffffffffffffffffffffffffffffffffffffffffffffe016810167ffffffffffffffff81118282101715613a1e57613a1e6139a8565b604052919050565b600067ffffffffffffffff821115613a4057613a406139a8565b50601f017fffffffffffffffffffffffffffffffffffffffffffffffffffffffffffffffe01660200190565b60008060008060808587031215613a8257600080fd5b8435613a8d81613670565b93506020850135613a9d81613670565b925060408501359150606085013567ffffffffffffffff811115613ac057600080fd5b8501601f81018713613ad157600080fd5b8035613ae4613adf82613a26565b6139d7565b818152886020838501011115613af957600080fd5b8160208401602083013760006020838301015280935050505092959194509250565b803567ffffffffffffffff811681146136a257600080fd5b60008060008060008060c08789031215613b4c57600080fd5b8635613b5781613670565b95506020870135613b6781613670565b9450613b7560408801613b1b565b9350613b8360608801613b1b565b925060808701359150613b9860a08801613692565b90509295509295509295565b600080600060408486031215613bb957600080fd5b833567ffffffffffffffff80821115613bd157600080fd5b818601915086601f830112613be557600080fd5b813581811115613bf457600080fd5b8760208260051b8501011115613c0957600080fd5b6020928301955093506136e39186019050613692565b60008060408385031215613c3257600080fd5b8235613c3d81613670565b9150602083013561379781613670565b60008060008060808587031215613c6357600080fd5b8435935060208501356fffffffffffffffffffffffffffffffff81168114613c8a57600080fd5b9250613c9860408601613b1b565b9150613ca660608601613692565b905092959194509250565b600181811c90821680613cc557607f821691505b60208210811415613cff577f4e487b7100000000000000000000000000000000000000000000000000000000600052602260045260246000fd5b50919050565b7f4e487b7100000000000000000000000000000000000000000000000000000000600052601160045260246000fd5b60006fffffffffffffffffffffffffffffffff808316818516808303821115613d5f57613d5f613d05565b01949350505050565b60208152816020820152818360408301376000818301604090810191909152601f9092017fffffffffffffffffffffffffffffffffffffffffffffffffffffffffffffffe0160101919050565b60007fffffffffffffffffffffffffffffffffffffffffffffffffffffffffffffffff821415613de757613de7613d05565b5060010190565b60008351613e008184602088016135e7565b835190830190613d5f8183602088016135e7565b7f4e487b7100000000000000000000000000000000000000000000000000000000600052603260045260246000fd5b60008083357fffffffffffffffffffffffffffffffffffffffffffffffffffffffffffffffe1843603018112613e7857600080fd5b83018035915067ffffffffffffffff821115613e9357600080fd5b602001915036819003821315613ea857600080fd5b9250929050565b8183823760009101908152919050565b600067ffffffffffffffff808316818516808303821115613d5f57613d5f613d05565b600082821015613ef457613ef4613d05565b500390565b60008219821115613f0c57613f0c613d05565b500190565b60006fffffffffffffffffffffffffffffffff83811690831681811015613f3a57613f3a613d05565b039392505050565b600067ffffffffffffffff83811690831681811015613f3a57613f3a613d05565b6000817fffffffffffffffffffffffffffffffffffffffffffffffffffffffffffffffff0483118215151615613f9b57613f9b613d05565b500290565b7f4e487b7100000000000000000000000000000000000000000000000000000000600052601260045260246000fd5b600082613fde57613fde613fa0565b500490565b60008060408385031215613ff657600080fd5b505080516020909101519092909150565b60006020828403121561401957600080fd5b5051919050565b60008261402f5761402f613fa0565b500690565b60006020828403121561404657600080fd5b815167ffffffffffffffff81111561405d57600080fd5b8201601f8101841361406e57600080fd5b805161407c613adf82613a26565b81815285602083850101111561409157600080fd5b61304d8260208301602086016135e7565b600073ffffffffffffffffffffffffffffffffffffffff8087168352808616602084015250836040830152608060608301526140e16080830184613613565b9695505050505050565b6000602082840312156140fd57600080fd5b81516121018161359956fea2646970667358221220532a6716937de4ececc0d7e4b11a5f28dfc219a88da4392cba25465780b6a2fd64736f6c634300080a0033",
  "linkReferences": {},
  "deployedLinkReferences": {}
}